:100000000C94D4000C94F3000C94F3000C94240191
:100010000C9447010C946A010C9493010C94BC015C
:100020000C94E5010C94F3000C94F3000C94F30091
:100030000C9415010C94F3000C94F3000C94F5004F
:100040000C94F3000C94F3000C94F3000C94F30064
:100050000C94F3000C94F3000C94F3000C94F30054
:100060000C94F3000C94F3000C94F3000C94F30044
:100070000C94F3000C94F3000C94F3000C94F30034
:100080000C94F3000C94F3000C94F300537461721D
:1000900074696E6720726164696F002A2A2A20538E
:1000A0004D3656465A006E616E00696E660000401D
:1000B0007A10F35A00A0724E18090010A5D4E80077
:1000C00000E87648170000E40B54020000CA9A3B8F
:1000D000000000E1F5050000809698000000404215
:1000E0000F000000A08601000000102700000000A3
:1000F000E803000000006400000000000A000000A7
:1001000000000100000000002C76D888DC674F0852
:1001100023DFC1DFAE59E1B1B796E5E3E453C63A58
:10012000E651997696E8E6C28426EB898C9B62EDCF
:10013000407C6FFCEFBC9C9F40F2BAA56FA5F49089
:10014000055A2AF75C936B6CF9676DC11BFCE0E400
:100150000D47FEF520E6B500D0ED902E0300943556
:1001600077050080841E080000204E0A000000C8A9
:100170000C333333330F986E12831141EF8D2114FA
:10018000893BE65516CFFEE6DB18D1844B381BF7CA
:100190007C1D901DA4BBE424203284725E22810069
:1001A000C9F124ECA1E53D2711241FBECFEFD0E11A
:1001B000DEBFCDBF12E0A0E0B1E0E2E4FCE200E08F
:1001C0000BBF02C007900D92AE30B107D9F722E005
:1001D000AEE0B2E001C01D92A833B207E1F70E9481
:1001E000E0070C941F160C9400001F920F920FB69C
:1001F0000F9211242F938F939F93809134029091AB
:100200003502843F914048F4809134029091350248
:10021000019690933502809334029F918F912F9194
:100220000F900FBE0F901F9018951F920F920FB650
:100230000F9211248F9381E0809336028F910F905B
:100240000FBE0F901F9018951F920F920FB60F922E
:1002500011248F93829915C086E08A95F1F700C02A
:10026000839B0FC086E08A95F1F700C0829909C090
:10027000839B07C081E28A95F1F7000081E08093BB
:100280002E028F910F900FBE0F901F9018951F9206
:100290000F920FB60F9211248F93839915C086E0A9
:1002A0008A95F1F700C0829B0FC086E08A95F1F72E
:1002B00000C0829B09C0839907C081E28A95F1F74B
:1002C000000082E080932E028F910F900FBE0F905E
:1002D0001F9018951F920F920FB60F9211248F93B3
:1002E0009F930C9919C083EF91E00197F1F700C03B
:1002F00000000D9B11C083EF91E00197F1F700C062
:1003000000000C9909C00D9B07C091E29A95F1F786
:10031000000081E080932E029F918F910F900FBE7D
:100320000F901F9018951F920F920FB60F921124E5
:100330008F939F930D9919C083EF91E00197F1F787
:1003400000C000000C9B11C083EF91E00197F1F712
:1003500000C000000C9B09C00D9907C091E29A955E
:10036000F1F7000082E080932E029F918F910F9011
:100370000FBE0F901F9018951F920F920FB60F92FD
:1003800011248F939F930E9919C083EF91E00197E9
:10039000F1F700C000000F9B11C083EF91E00197BF
:1003A000F1F700C000000E9909C00F9B07C091E251
:1003B0009A95F1F7000082E080932F029F918F9130
:1003C0000F900FBE0F901F9018951F920F920FB6AF
:1003D0000F9211248F939F930F9919C083EF91E08F
:1003E0000197F1F700C000000E9B11C083EF91E070
:1003F0000197F1F700C000000E9B09C00F9907C0DC
:1004000091E29A95F1F7000081E080932F029F918D
:100410008F910F900FBE0F901F90189585E48093D9
:10042000700084E080937400089584EA80937400DF
:100430008091740087FFFCCF089584E98093740055
:1004400008958093730084E8809374008091740011
:1004500087FFFCCF089584EC809374008091740032
:1004600087FFFCCF80917300089584E88093740027
:100470008091740087FFFCCF809173000895809174
:100480007100887F08951F93CF93DF931F92CDB79C
:10049000DEB7162F89830E94150290917100987F14
:1004A0008981983029F084E98093740081E01EC02E
:1004B000880F0E94210290917100987F983129F055
:1004C00084E98093740082E011C0812F0E94210290
:1004D00080917100887F883229F084E980937400CC
:1004E00083E004C084E98093740080E00F90DF9182
:1004F000CF911F9108950F931F93CF93DF931F9276
:10050000CDB7DEB78B0189830E94150290917100EF
:10051000987F8981983029F084E98093740081E084
:1005200016C0880F81600E94210280917100887F2F
:10053000803429F084E98093740082E008C00E942E
:100540003502F801808384E98093740080E00F9085
:10055000DF91CF911F910F9108950F931F93CF9328
:10056000DF931F92CDB7DEB7162F072F89830E9426
:10057000150290917100987F8981983029F084E963
:100580008093740081E02BC0880F0E94210290911B
:100590007100987F983129F084E98093740082E09B
:1005A0001EC0802F0E94210290917100987F983286
:1005B00029F084E98093740083E011C0812F0E94A8
:1005C000210280917100887F883229F084E980932C
:1005D000740084E004C084E98093740080E00F908C
:1005E000DF91CF911F910F910895FF920F931F9369
:1005F000CF93DF931F92CDB7DEB7162F042FF22EC5
:1006000089830E94150290917100987F89819830AA
:1006100029F084E98093740081E033C0880F0E9440
:10062000210290917100987F983129F084E980939C
:10063000740082E026C0812F0E94210290917100F7
:10064000987F983229F084E98093740083E019C080
:10065000802F0E94210290917100987F983241F47E
:100660008F2D0E94210280917100887F883229F0AD
:1006700084E98093740084E004C084E9809374006A
:1006800080E00F90DF91CF911F910F91FF9008951F
:10069000EF92FF920F931F93CF93DF931F92CDB7EB
:1006A000DEB7162FF42EE22E89830E941502909158
:1006B0007100987F8981983029F084E980937400D3
:1006C00081E03BC0880F0E94210290917100987FC9
:1006D000983129F084E98093740082E02EC0812F44
:1006E0000E94210290917100987F983229F084E94C
:1006F0008093740083E021C08F2D0E94210290918D
:100700007100987F983281F48E2D0E942102909181
:100710007100987F983241F4802F0E9421028091CD
:100720007100887F883229F084E98093740084E026
:1007300004C084E98093740080E00F90DF91CF9132
:100740001F910F91FF90EF900895DF92EF92FF922B
:100750000F931F93CF93DF931F92CDB7DEB7162F62
:10076000F42ED22E89830E94150290917100987FF9
:100770008981983029F084E98093740081E043C036
:10078000880F0E94210290917100987F983129F082
:1007900084E98093740082E036C0812F0E94210298
:1007A00090917100987F983229F084E980937400C9
:1007B00083E029C08F2D0E94210290917100987FC3
:1007C0009832C1F48D2D0E94210290917100987F82
:1007D000983281F4802F0E94210290917100987FBD
:1007E000983241F48E2D0E94210280917100887F01
:1007F000883229F084E98093740084E004C084E99D
:100800008093740080E00F90DF91CF911F910F9142
:10081000FF90EF90DF9008958F929F92AF92BF92DA
:10082000CF92DF92EF92FF920F931F93CF93DF93BC
:10083000CDB7DEB7EC970FB6F894DEBF0FBECDBFD5
:1008400080913002883041F080913002893021F06F
:10085000809130028A3091F460912A0270912B02CB
:1008600080912C0290912D020E94391460932A02EB
:1008700070932B0280932C0290932D0284E00E94AF
:100880005C0760912A0270912B0280912C0290915A
:100890002D0220E030E04AE754E40E94CD12F62E0B
:1008A000E72ED82EC92E60912A0270912B028091DA
:1008B0002C0290912D0200910E0210910F0220E067
:1008C00030E04AE754E40E94C6114B015C01B801D4
:1008D000110F880B990B0E9470129B01AC01C5018E
:1008E000B4010E9455110E94AB12CF92DF92EF9299
:1008F000FF920E9438127F936F9382E091E09F9362
:100900008F938E010F5F1F4F1F930F930E949115BE
:10091000C8010E9468078FE00E945C078091100266
:100920000FB6F894DEBF0FBECDBF8B301CF061E177
:1009300071E009C080911002863F1CF463E171E010
:1009400002C06CE371E0C8010E944715C8010E9413
:100950006807EC960FB6F894DEBF0FBECDBFDF91EF
:10096000CF911F910F91FF90EF90DF90CF90BF90AC
:10097000AF909F908F900895EF920F93E82E062FDF
:1009800020E040E060E883E20E94A5030F91EF9031
:10099000089584B195B10895409128028091110283
:1009A00090911202609131027091320220912502E1
:1009B0003091260277276695779566279F70682B7A
:1009C000792B30E4239F302D22271124622B732BA7
:1009D00021E0411101C020E080E090E0922F92954B
:1009E000990F907E682B792B82E20E94AD028823BA
:1009F00011F08B5F089580E008958F929F92AF92DF
:100A0000BF92CF92DF92EF92FF920F931F93CF93FB
:100A1000DF931F92CDB7DEB7209111023091120201
:100A2000882309F498C020912A0230912B0240912A
:100A30002C0250912D0260E078EC8FE297E40E9446
:100A4000541121E030E030932602209325022091BA
:100A50003002233039F426E636E646EE5FE30E94A4
:100A6000541117C020913002253029F426E636E6CD
:100A700046E65FE30CC020913002263051F0209111
:100A80003002213031F426E636E646EE5FE30E947E
:100A9000551125E63FEC4BE853E40E94CC136B0163
:100AA0007C0120E030E040E853E30E94CC130E9438
:100AB000AB1260931F0270932002809321029093E7
:100AC000220220E030E040E85BE40E94CC139B016E
:100AD000AC01C701B6010E9454114B015C0120E03A
:100AE00030E040E857E30E94CC130E94AB126093C1
:100AF0001B0270931C0280931D0290931E0220E043
:100B000030E040E857E40E94CC139B01AC01C501E2
:100B1000B4010E94541120E030E040E85BE30E9401
:100B2000CC130E94AB12609317027093180280934B
:100B3000190290931A0220E030E040E853E4C70124
:100B4000B6010E94CD126093130270931402809339
:100B50001502909316021091100260911302709189
:100B6000140280911502909116020E943F12E62E07
:100B700060911702709118028091190290911A02E7
:100B80000E943F12062F60911B0270911C028091FF
:100B90001D0290911E020E943F12262F60911F029B
:100BA00070912002809121029091220229830E945B
:100BB0003F12412F4E7F462B298160EC83E20E9439
:100BC000A5030F90DF91CF911F910F91FF90EF90B0
:100BD000DF90CF90BF90AF909F908F900895EF924D
:100BE0000F9390913002953051F1A0F4913039F18A
:100BF000933009F050C0909133028091280228E090
:100C0000829FA001112420E4929FC0011124482B4F
:100C100068E741C0983011F19A3079F19630D9F5F2
:100C2000909133028091280228E0829FA001112434
:100C300020E4929FC0011124482B60E62CC09091C3
:100C400033028091280228E0829FA001112420E431
:100C5000929FC0011124482B60E71DC09091330280
:100C60008091280228E0829FA001112420E4929F15
:100C7000C0011124482B60E40EC090913302809192
:100C8000280228E0829FA001112420E4929FC00145
:100C90001124482B61E4E12C00E028E883E20E9463
:100CA000A5030F91EF90089586EA86B983E487B98A
:100CB000369A08958FE083BF8AE081BF87B782604C
:100CC00087BF08951FBC8BE08EBD8BE196E09BBD76
:100CD0008ABD87B7806187BF0895E5E6F0E080812F
:100CE0008D7F80830895E5E6F0E0808182608083D7
:100CF0000895AF92BF92CF92DF92EF92FF920F933F
:100D00001F93CF93DF931F92CDB7DEB7882321F0D7
:100D100089830E94EF06898190912302992329F00B
:100D200000C000C0000010922302882329F0979A87
:100D300081E08093230201C09798809165008160D3
:100D400080936500A798A698A598A498A398A298C0
:100D5000A198A0980E9473060000E3B2C3B2F3B258
:100D600003B313B3B3B2A3B2D3B20E946D06A79A72
:100D7000A69AA59AA49AA39AA29AA19AA09AAF9A7F
:100D8000AE9AAD9AAC9AAB9AAA9AA99AA89A80916F
:100D900065008E7F809365008C2D80749E2D9078E9
:100DA000E82EE92A9F2D9072FE2CF92A00710F2956
:100DB0001870102B8B2D8470812B9A2D9270982B8C
:100DC0008D2D8170892B0F90DF91CF911F910F9105
:100DD000FF90EF90DF90CF90BF90AF900895CF93AA
:100DE000DF93CEE3D0E080E00E94790687FF02C067
:100DF0002197C9F7DF91CF910895CF93DF9300D06A
:100E0000CDB7DEB76A8389830E94EF0690912302F3
:100E10006A818981992329F000C000C000001092E6
:100E20002302662329F0979A91E09093230203C04E
:100E300097981092230287FF02C0AF9A01C0AF9823
:100E400086FF02C0AE9A01C0AE9885FF02C0AD9A7F
:100E500001C0AD9884FF02C0AC9A01C0AC9883FF7A
:100E600002C0AB9A01C0AB9882FF02C0AA9A01C02F
:100E7000AA9881FF02C0A99A01C0A99880FF02C068
:100E8000A89A01C0A89800000E94730600000E9462
:100E90006D06AF9AAE9AAD9AAC9AAB9AAA9AA99AF5
:100EA000A89A0F900F90DF91CF91089581E00C9454
:100EB000790660E00C94FD0680580C94590781E097
:100EC0000C94590782E00C94590761E00C94FD06DC
:100ED000CF93DF93EC018991882319F00E94650775
:100EE000FACFDF91CF910895CF93DF93FC018491E6
:100EF000EF012196882321F00E946507FE01F7CFBC
:100F0000DF91CF910895E4E6F0E0808182608083F4
:100F10008F9A808181608083A79AA69AA59AA49AC5
:100F2000A39AA29AA19AA09A0E946D069798E5E6C4
:100F3000F0E080818E7F8083AF9AAE9AAD9AAC9AB2
:100F4000AB9AAA9AA99AA89A85EA9EE00197F1F726
:100F500000C00000AF98AE9800000E947306000029
:100F60000E946D0680E094E00197F1F700C0000058
:100F70000E94730600000E946D0691E29A95F1F7B7
:100F800000000E94730600000E946D068DE08A95A5
:100F9000F1F70000AA9800000E94730600000E946A
:100FA0006D069DE09A95F1F7000088E00E945907D0
:100FB0000E945F0786E00E9459078CE00C94590755
:100FC000CF93DF93CDB7DEB7C354D1090FB6F894F2
:100FD000DEBF0FBECDBF8FEF8ABB87BB84BB93EF55
:100FE00091BB97E092B990EE90936100809364007A
:100FF0001BBA18BA15BA8CE082BB88EF83B983E1BB
:10100000809362001092650080E488B980EA809342
:101010006A008AEA8ABF8CEF89BF0FB6F894A89558
:1010200081B5886181BD11BC0FBE2FE986E891E0D2
:10103000215080409040E1F700C0000082B38066FC
:1010400082BB17BE0E945A060E9462060E940E02D0
:101050000E9483070E945F070E945406AFE4B3EC2E
:101060001197F1F700C0000082B38F7982BB6BE962
:1010700070E08E010F5F1F4FC8010E943515C80137
:101080000E94680780E40E945C076CE870E0C80179
:101090000E943515C8010E94680781E080932E02E6
:1010A0008093270282E080932902109236028AE020
:1010B0008093240280E090E1ABEDB5E480932A02B6
:1010C00090932B02A0932C02B0932D028FEF90E00F
:1010D00090933502809334021092300210923202C3
:1010E00010923102109228021092330210923702AD
:1010F00060E088E10E94BC04BFE72AE186E0B150CD
:1011000020408040E1F700C000000E945F07789413
:10111000C12CD12C38E1A32E9FEF9EAFB12C1FAE76
:10112000E12CF12C412C40E6542E4BE5642E45E495
:10113000742E80913602882309F452C184B095B090
:10114000C1010A978816990624F0449688159905D6
:101150003CF5C40192509595879595958795809318
:10116000100280E00E94FD048823B9F01F928F9343
:1011700085E191E09F938F931F930F930E949115A8
:1011800080E40E945C07C8010E9468070F900F90DE
:101190000F900F900F900F9002C00E940C0414014A
:1011A000809100018F3F29F0809100018F5F809333
:1011B0000001809101018930D8F4809101018F5F95
:1011C0008093010180910101893040F4009B06C0A9
:1011D00081E0809329028FEF8093010180910101CA
:1011E000893049F4009907C082E08093290203C046
:1011F000009B10920101019903C081E080932702B6
:1012000060912A0270912B0280912C0290912D0204
:1012100024962CAD3DAD4EAD5FAD24970E94C1111B
:10122000882359F10E940C0481E00E94FD04882368
:10123000B1F01F928F9385E191E09F938F931F935D
:101240000F930E94911580E40E945C07C8010E94E0
:1012500068070F900F900F900F900F900F90809154
:101260002A0290912B02A0912C02B0912D0224967B
:101270008CAF9DAFAEAFBFAF2497BE01635C7F4F15
:1012800083E20E947B02811120C08DAD87FF10C0D8
:101290009EAD9130E9F081E090E09093320280932E
:1012A00031020E94CC04969A9598A1E0AEAF10C08E
:1012B000BEADBB2369F010923202109231020E943F
:1012C000CC04959A96981EAE03C082B38F7982BBE8
:1012D0008DAD8F73F81608F4F82EE39480913702E1
:1012E000811103C022E02E1548F080913702882337
:1012F00009F473C082E08E1508F06FC093E09F156B
:1013000018F48CEF8F0D01C080E0909100019A30AD
:1013100008F461C090913702992329F08A3018F0BF
:1013200065E271E049C090913702992329F08A3033
:1013300088F4109237024DC0823028F41F928F93A8
:1013400081E391E00DC0843028F41F928F938EE3E7
:1013500091E006C0863038F41F928F938BE491E0C1
:101360009F938F930FC0883028F41F928F93A8E526
:10137000B1E006C08A30B8F41F928F93A5E6B1E0C1
:10138000BF93AF931F930F930E94911580E40E9427
:101390005C07C8010E9468070F900F900F900F9094
:1013A0000F900F9018C08C3018F462E771E004C001
:1013B0008C3061F46EE771E0C8010E94471580E44B
:1013C0000E945C07C8010E94680705C081E0809305
:1013D00037020E94CC04E12CF12C109236026EC030
:1013E00080912702882309F469C0809130028330FC
:1013F000A9F018F4813031F045C08530D9F086303D
:1014000029F140C083E0809330020E94EF058111F2
:101410004AC00E945C076AE871E03FC085E08093A3
:1014200030020E94EF0581113EC00E945C076FE808
:1014300071E033C086E0809330020E94EF05811195
:1014400032C00E945C0764E971E027C080912402E9
:10145000883C60F488E0809330020E94EF0581119F
:1014600022C00E945C0769E971E017C08AE080939E
:1014700030020E94EF05811116C00E945C076EE9E0
:1014800071E00BC081E0809330020E94EF05811172
:101490000AC00E945C0763EA71E0C8010E94471518
:1014A000C8010E94680783E294EF0197F1F700C03A
:1014B000000081E00E94FD04109227028091290221
:1014C000882309F412C180912902823009F4CDC029
:1014D00060912A0270912B0280912C0290912D0232
:1014E00020E030EC4AE555E40E94C11187FF09C0B5
:1014F00040922A0250922B0260922C0270922D028E
:10150000B4C060912A0270912B0280912C029091BC
:101510002D0220E030EC4AED55E40E94C11187FF16
:1015200005C080E090E1ABEDB5E497C060912A0280
:1015300070912B0280912C0290912D0220E030EDD1
:101540004DE156E40E94C11187FF05C080E098EF8D
:10155000ADE1B6E482C060912A0270912B028091C5
:101560002C0290912D0220E030EC4AE556E40E94D6
:10157000C11187FF05C080E098EEAAE5B6E46DC012
:1015800060912A0270912B0280912C0290912D0281
:1015900020E038E24DE856E40E94C11187FF05C003
:1015A00080E09CE3ADE8B6E458C060912A027091F7
:1015B0002B0280912C0290912D0220E030E144EA30
:1015C00056E40E94C11187FF05C080E094E2A4EABE
:1015D000B6E443C060912A0270912B0280912C02E4
:1015E00090912D0220E034E742EC56E40E94C111B4
:1015F00087FF05C080E098E8A2ECB6E42EC06091B9
:101600002A0270912B0280912C0290912D0220E0F1
:1016100030EC4AED56E40E94C11187FF05C080E01E
:1016200094EDAAEDB6E419C060912A0270912B02E4
:1016300080912C0290912D0220E038EA4EED56E484
:101640000E94C11187FF05C080E090E7AFEDB6E4CE
:1016500004C080E090E4A2EEB4E480932A02909368
:101660002B02A0932C02B0932D020E940C0481E067
:101670000E94FD048823B1F01F928F9388EA91E0C5
:101680009F938F931F930F930E94911580E40E9464
:101690005C07C8010E9468070F900F900F900F9091
:1016A0000F900F900E94EF058823B1F01F928F9347
:1016B0008DEB91E09F938F931F930F930E94911551
:1016C00080E40E945C07C8010E9468070F900F9099
:1016D0000F900F900F900F90AFE4B3EC1197F1F7CC
:1016E00000C000001092290224CD80912E02882390
:1016F00009F4AEC180912E02BFAD8B1749F0109254
:1017000035021092340280912E02C12CD12C9CC142
:1017100090912E02913009F0C5C0809134029091D1
:10172000350210923502109234024E9748F42FEF92
:10173000C21AD20A85EFC81681E0D80628F427C05D
:10174000CC24C394D12C56C080913002883069F4E7
:1017500060912A0270912B0280912C0290912D02AF
:1017600020E030E040EA51E491C0809130028A30BC
:1017700009F046C060912A0270912B0280912C02E0
:1017800090912D0220E030E048E452E47FC097E9D8
:10179000C916D10478F180913002883069F46091E3
:1017A0002A0270912B0280912C0290912D0220E050
:1017B00030E040EA50E46AC0809130028A3069F437
:1017C00060912A0270912B0280912C0290912D023F
:1017D00020E030E048EC51E459C060912A02709159
:1017E0002B0280912C0290912D0220E030E040E00D
:1017F0005FE34CC0809130028830E1F40B9B0DC058
:1018000060912A0270912B0280912C0290912D02FE
:1018100020E030E040E85FE339C060912A02709137
:101820002B0280912C0290912D0220E030E040E2CA
:1018300051E42CC0809130028A3069F460912A0210
:1018400070912B0280912C0290912D0220E030E0CB
:1018500040E250E41BC00B9B0DC060912A027091C6
:101860002B0280912C0290912D022DEC3CEC4CE44B
:101870005DE30CC060912A0270912B0280912C02D2
:1018800090912D0220E030E040E050E40E9455119C
:1018900060932A0270932B0280932C0290932D0266
:1018A00081E0D2C090912E02923009F0CDC080919B
:1018B0003402909135024E9790F480912E02AFAD94
:1018C000A8130DC01092350210923402BFEFCB1A4C
:1018D000DB0A25EFC21621E0D20648F42BC0109295
:1018E000350210923402CC24C394D12C56C080917E
:1018F0003002883069F460912A0270912B02809145
:101900002C0290912D0220E030E040EA51E491C099
:10191000809130028A3009F046C060912A027091AD
:101920002B0280912C0290912D0220E030E048E4BF
:1019300052E47FC087E9C816D10478F18091300263
:10194000883069F460912A0270912B0280912C02F8
:1019500090912D0220E030E040EA50E46AC080918E
:1019600030028A3069F460912A0270912B028091D2
:101970002C0290912D0220E030E048EC51E459C057
:1019800060912A0270912B0280912C0290912D027D
:1019900020E030E040E05FE34CC0809130028830CE
:1019A000E1F40B9B0DC060912A0270912B02809193
:1019B0002C0290912D0220E030E040E85FE339C036
:1019C00060912A0270912B0280912C0290912D023D
:1019D00020E030E040E251E42CC0809130028A30B7
:1019E00069F460912A0270912B0280912C029091EF
:1019F0002D0220E030E040E250E41BC00B9B0DC004
:101A000060912A0270912B0280912C0290912D02FC
:101A10002DEC3CEC4CE45DE30CC060912A0270912B
:101A20002B0280912C0290912D0220E030E040E0CA
:101A300050E40E94541160932A0270932B02809309
:101A40002C0290932D0282E010922E028FAF71CB68
:101A500080912F02882309F46CCB809100018230A1
:101A600008F47AC0049B35C080912F02813029F49C
:101A70009EE19A1540F0A39406C080912F02823017
:101A8000E1F4A110AA948FE190E08A1991099F9343
:101A90008F9382ED91E09F938F931F930F930E94FA
:101AA000911580E40E945C07C8010E9468070F90AE
:101AB0000F900F900F900F900F906B2D8A2D0E941A
:101AC000BC04882309F446C01F928F938DED91E0EA
:101AD0002FC080912F02823029F4AEE1AB1540F087
:101AE000B39406C080912F028130C1F4B110BA9432
:101AF0001F92BF9281EF91E09F938F931F930F935B
:101B00000E94911580E40E945C07C8010E9468074A
:101B10000F900F900F900F900F900F906B2D8A2DBC
:101B20000E94BC048823B1F01F928F938BEF91E049
:101B30009F938F931F930F930E94911580E40E94AF
:101B40005C07C8010E9468070F900F900F900F90DC
:101B50000F900F901092000110922F02EACA2F925C
:101B60003F924F925F926F927F928F929F92AF922D
:101B7000BF92CF92DF92EF92FF920F931F93CF937A
:101B8000DF93CDB7DEB763970FB6F894DEBF0FBE15
:101B9000CDBF6C014B012A01FC01178216828381A3
:101BA00081FF43C3AE014F5F5F4F3A01F60193815E
:101BB000F40193FD859193FF81914F01882309F4EE
:101BC00030C3853239F493FD859193FF81914F01A4
:101BD000853239F4B60190E00E9459155201250171
:101BE000E5CF10E0F12C20E02032A0F48B3269F038
:101BF00030F4803259F0833269F420612CC08D3288
:101C000039F0803339F4216026C02260246023C07B
:101C1000286021C027FD27C030ED380F3A3078F416
:101C200026FF06C0FAE01F9F300D1124132F13C0AA
:101C30004AE0F49E300D1124F32E20620CC08E3247
:101C400021F426FDEEC2206406C08C3611F4206813
:101C500002C0883641F4F40193FD859193FF819190
:101C60004F018111C1CF9BEB980F933018F4206185
:101C7000805E06C09BE9980F933008F071C12F7EFB
:101C800026FF16E02F73322E853619F42064322E8B
:101C900008C0863621F4F22FF0683F2E02C01111E1
:101CA000115037FE07C01C3350F4EE24E394E10ECC
:101CB00027E00BC0183038F027E017E005C027E018
:101CC0004CE3E42E02C0212FE12C520144E0A40E8B
:101CD000B11CF20160817181828193810E2DA3017B
:101CE0000E945D142C01098100FF02C003FF07C0A0
:101CF00031FC08C032FE09C030E2232E07C02DE2BD
:101D0000222E04C09BE2292E01C0212C802F8C7032
:101D100019F0211068C2A8C237FE0FC0E40C04FFFE
:101D200004C08A81813309F4EA941E1474F5F8E042
:101D3000FE1578F588E0E82E2CC036FC2AC0812FED
:101D400090E0841595059CF02CEF42162FEF52067B
:101D500074F0432D4068342E0AC0E2E0F0E0EC0F4E
:101D6000FD1FE10FF11D8081803319F41150111115
:101D7000F4CF37FE0EC0EE24E394E10E812F90E005
:101D8000481659062CF4141904C0EE24E39401C03B
:101D900010E037FE06C01414150434F4C201019695
:101DA00005C085E090E002C081E090E0211001963E
:101DB000112331F0212F30E02F5F3F4F820F931F0F
:101DC0002F2D30E08217930714F4F81A01C0F12C7C
:101DD000832D897049F4FF2039F0B60180E290E04C
:101DE0000E945915FA94F7CF222029F0B601822DCE
:101DF00090E00E94591533FC09C0FF2039F0B6016C
:101E000080E390E00E945915FA94F7CF37FE5AC04C
:101E1000942D852D57FE02C090E080E0292E382EAB
:101E200020E030E0A2014E1951095D874C87A201E4
:101E3000421953095F874E87612F70E04427552769
:101E4000461B570B598B488B5FEF2516350649F417
:101E5000B6018EE290E02A8B3B8B0E9459153B899C
:101E60002A89421453046CF04C855D854215530554
:101E700044F4EE85FF85E20FF31FE60DF71D818127
:101E800001C080E351E0251A31082F5F3F4F488998
:101E90005989241635064CF0B60190E02A8B3B8B0D
:101EA0000E9459152A893B89CFCF2414350439F46F
:101EB0009A81963318F4953311F404FF81E3B60147
:101EC00090E04BC08A81813309F00F7EB60190E02B
:101ED0000E945915111105C034FC18C085E690E028
:101EE00017C0B6018EE290E00E94591582E0EE2400
:101EF000E394E80EF301E80FF11D8081B60190E054
:101F00000E94591511508E2D91F7E6CF85E490E08F
:101F1000B6010E94591557FC05C04114510439F40B
:101F200004FF05C05194419451088DE201C08BE239
:101F3000B60190E00E94591580E39AE049165104D9
:101F40002CF08F5F5AE0451A5108F7CFB60190E0A8
:101F50000E945915B601C201C0960E94591557C179
:101F6000833631F0833779F0833509F058C021C0CA
:101F70005201E2E0AE0EB11CF2018081898301E0E2
:101F800010E0230114C05201F2E0AF0EB11CF201C7
:101F90004080518026FF03C0612F70E002C06FEFC8
:101FA0007FEFC2012A8B0E944E158C012A892F7760
:101FB00015C05201F2E0AF0EB11CF2014080518019
:101FC00026FF03C0612F70E002C06FEF7FEFC201F8
:101FD0002A8B0E943C158C012A892068322E23FD11
:101FE0001AC08F2D90E008171907A8F4B60180E2F7
:101FF00090E00E945915FA94F4CFF20137FC8591D4
:1020000037FE81912F01B60190E00E945915F11021
:10201000FA94015011090115110579F7F8C08436B9
:1020200011F0893659F5520127FF09C0F4E0AF0ECF
:10203000B11CF20160817181828193810AC0F2E05A
:10204000AF0EB11CF20160817181072E000C880B6C
:10205000990B2F76322E97FF09C090958095709539
:1020600061957F4F8F4F9F4F2068322E2AE030E0DE
:10207000A3010E94C115E82EE6183FC0022F853744
:1020800021F40F7E2AE030E01DC0097F8F3691F0E9
:1020900018F4883559F0C5C0803719F0883711F029
:1020A000C0C0006104FF09C0046007C024FF08C06D
:1020B000066006C028E030E005C020E130E002C044
:1020C00020E132E0520107FF09C0F4E0AF0EB11C7D
:1020D000F201608171818281938108C0F2E0AF0ECC
:1020E000B11CF2016081718180E090E0A3010E9447
:1020F000C115E82EE6180F77302E36FE0BC0332DB3
:102100003E7FE11650F434FE0AC032FC08C0332D85
:102110003E7E05C00E2D332D03C00E2D01C0012FB4
:1021200034FF0CC0FE01EE0DF11D8081803311F4EF
:10213000397E08C032FF05C00E5F04C0832F867849
:1021400009F00F5F33FD13C030FF06C01E2D0F15C1
:1021500018F41F0D101B0F2D0F1568F4B60180E247
:1021600090E03B8B0E9459150F5F3B89F5CF0F150F
:1021700010F4F01A01C0F12C34FF12C0B60180E354
:1021800090E03B8B0E9459153B8932FF17C031FD0F
:1021900003C088E790E002C088E590E0B6010CC07B
:1021A000832F867859F031FF02C08BE201C080E2B4
:1021B00037FD8DE2B60190E00E945915E11638F422
:1021C000B60180E390E00E9459151150F7CFEA94D0
:1021D000F301EE0DF11D8081B60190E00E945915CA
:1021E000E110F5CF14C0F4E0FF1558F584E0F81ABB
:1021F00033FE1EC0211026C003FF2AC006EA10E0ED
:10220000F32DF0713F2EF8018491811124C0FF203D
:1022100009F4E5CCB60180E290E00E945915FA94E9
:10222000F6CFF6018681978126C08FEF9FEF23C0FE
:10223000B60180E290E00E945915FA94F110F8CFAF
:10224000D9CFF12CB601822D90E00E945915D4CF40
:102250000AEA10E0D5CF31108052B60190E00E941A
:1022600059150F5F1F4FCFCF23E02F1510F483E0D8
:10227000BECFF12CC1CF63960FB6F894DEBF0FBE70
:10228000CDBFDF91CF911F910F91FF90EF90DF9025
:10229000CF90BF90AF909F908F907F906F905F9006
:1022A0004F903F902F9008955058BB27AA270E9427
:1022B0006C110C947A130E946C1338F00E94731303
:1022C00020F039F49F3F19F426F40C9469130EF4AE
:1022D000E095E7FB0C943A13E92F0E948B1358F317
:1022E000BA17620773078407950720F079F4A6F5FB
:1022F0000C94C5130EF4E0950B2EBA2FA02D0B01F4
:10230000B90190010C01CA01A0011124FF27591B3A
:1023100099F0593F50F4503E68F11A16F040A22F40
:10232000232F342F4427585FF3CF469537952795B1
:10233000A795F0405395C9F77EF41F16BA0B620BB0
:10234000730B840BBAF09150A1F0FF0FBB1F661FF7
:10235000771F881FC2F70EC0BA0F621F731F841F3A
:1023600048F4879577956795B795F7959E3F08F060
:10237000B0CF9395880F08F09927EE0F9795879522
:1023800008950E94161308F481E008950E94DA115E
:102390000C947A130E94731358F00E946C1340F04F
:1023A00029F45F3F29F00C943A1351110C94C61391
:1023B0000C9469130E948B1368F39923B1F355238E
:1023C00091F3951B550BBB27AA2762177307840748
:1023D00038F09F5F5F4F220F331F441FAA1FA9F3DE
:1023E00035D00E2E3AF0E0E832D091505040E695CC
:1023F000001CCAF72BD0FE2F29D0660F771F881F2D
:10240000BB1F261737074807AB07B0E809F0BB0B1F
:10241000802DBF01FF2793585F4F3AF09E3F510533
:1024200078F00C943A130C94C6135F3FE4F3983E93
:10243000D4F3869577956795B795F7959F5FC9F71C
:10244000880F911D9695879597F90895E1E0660F9D
:10245000771F881FBB1F621773078407BA0720F016
:10246000621B730B840BBA0BEE1F88F7E09508957F
:102470000E943F126894B1110C94C61308950E94F3
:10248000931388F09F5798F0B92F9927B751B0F060
:10249000E1F0660F771F881F991F1AF0BA95C9F7E8
:1024A00014C0B13091F00E94C513B1E008950C94AE
:1024B000C513672F782F8827B85F39F0B93FCCF361
:1024C000869577956795B395D9F73EF49095809565
:1024D000709561957F4F8F4F9F4F0895E89409C085
:1024E00097FB3EF490958095709561957F4F8F4F47
:1024F0009F4F9923A9F0F92F96E9BB279395F6955D
:10250000879577956795B795F111F8CFFAF4BB0FDA
:1025100011F460FF1BC06F5F7F4F8F4F9F4F16C03E
:10252000882311F096E911C0772321F09EE8872FC8
:10253000762F05C0662371F096E8862F70E060E084
:102540002AF09A95660F771F881FDAF7880F9695FD
:10255000879597F908950E94AD1390F09F3748F43E
:10256000911116F00C94C61360E070E080E89FEBC8
:10257000089526F41B16611D711D811D0C944013D6
:102580000C945B130E946C1320F019F00E947313DB
:1025900050F40C9469130C94C613E92F0E948B130A
:1025A00088F35523B1F3E7FB621773078407950798
:1025B000A8F189F3E92FFF2788232AF03197660FC6
:1025C000771F881FDAF7952F5527442332F0915053
:1025D0005040220F331F441FD2F7BB27E91BF50BD6
:1025E000621B730B840BB109B1F222F4620F731FEB
:1025F000841FB11D31972AF0660F771F881FBB1FFC
:10260000EFCF9150504062F041F0882332F0660FD6
:10261000771F881F91505040C1F793950C945B131E
:102620008695779567959F5FD9F7F7CF990F000843
:10263000550FAA0BE0E8FEEF16161706E807F90794
:10264000C0F012161306E407F50798F0621B730B2F
:10265000840B950B39F40A2661F0232B242B252BB0
:1026600021F408950A2609F4A140A6958FEF811D53
:10267000811D089597F99F6780E870E060E00895F4
:10268000882371F4772321F09850872B762F07C089
:10269000662311F499270DC09051862B70E060E0FD
:1026A0002AF09A95660F771F881FDAF7880F96959C
:1026B000879597F908959F3F31F0915020F48795C1
:1026C00077956795B795880F911D9695879597F99A
:1026D00008959FEF80EC089500240A9416161706BB
:1026E00018060906089500240A9412161306140603
:1026F00005060895092E0394000C11F4882352F066
:10270000BB0F40F4BF2B11F460FF04C06F5F7F4F1D
:102710008F4F9F4F089557FD9058440F551F59F004
:102720005F3F71F04795880F97FB991F61F09F3FBE
:1027300079F087950895121613061406551FF2CFE7
:102740004695F1DF08C0161617061806991FF1CF37
:10275000869571056105089408950E949313A0F071
:10276000BEE7B91788F4BB279F3860F41616B11D71
:10277000672F782F8827985FF7CF8695779567958D
:10278000B11D93959639C8F30895E894BB27662741
:102790007727CB0197F908950E94DF130C947A13E1
:1027A0000E946C1338F00E94731320F0952311F0EF
:1027B0000C943A130C94691311240C94C6130E94C0
:1027C0008B1370F3959FC1F3950F50E0551F629FD7
:1027D000F001729FBB27F00DB11D639FAA27F00D7A
:1027E000B11DAA1F649F6627B00DA11D661F829FA1
:1027F0002227B00DA11D621F739FB00DA11D621F86
:10280000839FA00D611D221F749F3327A00D611DA2
:10281000231F849F600D211D822F762F6A2F112484
:102820009F5750409AF0F1F088234AF0EE0FFF1FB7
:10283000BB1F661F771F881F91505040A9F79E3F0E
:10284000510580F00C943A130C94C6135F3FE4F3E7
:10285000983ED4F3869577956795B795F795E79564
:102860009F5FC1F7FE2B880F911D9695879597F96D
:1028700008950E949313E8F09E37E8F09639B8F473
:102880009E3848F4672F782F8827985FF9CF869570
:102890007795679593959539D0F3B62FB1706B0FF7
:1028A000711D811D20F487957795679593950C94FC
:1028B00040130C945B130C94C613283008F027E0E7
:1028C0003327DA01990F311D87FD9160009661056C
:1028D000710539F432602E5F3D9330E32A95E1F7BC
:1028E00008959F3F30F080387105610509F03C5F25
:1028F0003C5F3D93913008F08068911DDF93CF934A
:102900001F930F93FF92EF92192F987F9695E92FBF
:1029100096959695E90FFF27E85FFE4F9927332795
:10292000EE24FF24A701E70105900894079428F4FA
:10293000360FE71EF81E491F511D660F771F881FAF
:10294000991F0694A1F70590079428F4E70EF81E46
:10295000491F561FC11D770F881F991F661F0694B8
:10296000A1F70590079428F4F80E491F561FC71FBA
:10297000D11D880F991F661F771F0694A1F7059038
:10298000079420F4490F561FC71FD81F990F661FC1
:10299000771F881F0694A9F784911095177041F04E
:1029A000D695C79557954795F794E7941A95C1F72B
:1029B000EEEAF0E068941590159135916591959146
:1029C00005907FE27395E118F10A430B560BC90B92
:1029D000D009C0F7E10CF11E431F561FC91FD01DBF
:1029E0007EF4703311F48A95E6CFE894015030F00C
:1029F000080F0AF40027021708F4202F2395022F4E
:102A00007A3328F079E37D932A95E9F710C07D9316
:102A10002A9589F606949795679537951795179493
:102A2000E118F10A430B560BC90BD00998F0239516
:102A30007E9173957A3308F070E37C932013B8F796
:102A40007E9170617D9330F0839571E37D9370E3A7
:102A50002A95E1F71124EF90FF900F911F91CF91EC
:102A6000DF91992787FD90950895FB01DC01059082
:102A70000D920020E1F70895FC010590615070402F
:102A80000110D8F7809590958E0F9F1F0895FB0138
:102A9000DC0101900D920020E1F70895FC016150E6
:102AA000704001900110D8F7809590958E0F9F1F70
:102AB00008950F931F93CF93DF93FB01238121FD93
:102AC00003C08FEF9FEF28C022FF16C046815781B9
:102AD000248135814217530744F4A081B1819D01BF
:102AE0002F5F3F4F318320838C93268137812F5F67
:102AF0003F4F3783268310C0EB01092F182F008426
:102B0000F185E02D0995892BE1F68E819F81019653
:102B10009F838E83812F902FDF91CF911F910F91F3
:102B200008950F931F93CF93DF93CDB7DEB72E9702
:102B30000FB6F894DEBF0FBECDBF0D891E8986E0AB
:102B40008C831A8309838FEF9FE79E838D83AE0169
:102B5000475E5F4F6F89788DCE0101960E94AF0D61
:102B60002F813885F801E20FF31F10822E960FB6E1
:102B7000F894DEBF0FBECDBFDF91CF911F910F91B3
:102B80000895FA01AA27283051F1203181F1E89403
:102B90006F936E7F6E5F7F4F8F4F9F4FAF4FB1E050
:102BA0003ED0B4E03CD0670F781F891F9A1FA11D4B
:102BB000680F791F8A1F911DA11D6A0F711D811D4C
:102BC000911DA11D20D009F468943F912AE0269F11
:102BD00011243019305D3193DEF6CF010895462F70
:102BE0004770405D4193B3E00FD0C9F7F6CF462F51
:102BF0004F70405D4A3318F0495D31FD40524193BA
:102C000002D0A9F7EACFB4E0A69597958795779576
:102C10006795BA95C9F700976105710508959B01FD
:102C2000AC010A2E06945795479537952795BA9586
:102C3000C9F7620F731F841F951FA01D0895F89494
:022C4000FFCFC4
:102C4200FFFF25642C2530362E32662020202020DE
:102C5200002B002D00457272202578202020202094
:102C62002020202000532D2D2D392B2B2B202020EE
:102C72000053256420202020202020202000532DD6
:102C82002564202020202020202000532D2D256483
:102C92002020202020202000532D2D2D25642020AF
:102CA2002020202000532D2D2D2D25642020202092
:102CB2002000532D2D2D2D392B2020202000532D87
:102CC2002D2D2D392B2B202020005553422000433F
:102CD2005720200043574E2000414D202000464DF2
:102CE2002020004C534220004572722066726571AA
:102CF20020257820202020202020202000457272CC
:102D02002073657474202578202020202020202024
:102D12002000566F6C20256420202020004572720E
:102D220020566F6C20257820202020202020202073
:102D32000053712025642020202000457272205308
:0E2D4200712025782020202020202020200035
:00000001FF
