:100000000C94D4000C94F3000C94F3000C94240191
:100010000C9447010C946A010C9493010C94BC015C
:100020000C94E5010C94F3000C94F3000C94F30091
:100030000C9415010C94F3000C94F3000C94F5004F
:100040000C94F3000C94F3000C94F3000C94F30064
:100050000C94F3000C94F3000C94F3000C94F30054
:100060000C94F3000C94F3000C94F3000C94F30044
:100070000C94F3000C94F3000C94F3000C94F30034
:100080000C94F3000C94F3000C94F300537461721D
:1000900074696E6720726164696F002A2A2A20538E
:1000A0004D3656465A006E616E00696E660000401D
:1000B0007A10F35A00A0724E18090010A5D4E80077
:1000C00000E87648170000E40B54020000CA9A3B8F
:1000D000000000E1F5050000809698000000404215
:1000E0000F000000A08601000000102700000000A3
:1000F000E803000000006400000000000A000000A7
:1001000000000100000000002C76D888DC674F0852
:1001100023DFC1DFAE59E1B1B796E5E3E453C63A58
:10012000E651997696E8E6C28426EB898C9B62EDCF
:10013000407C6FFCEFBC9C9F40F2BAA56FA5F49089
:10014000055A2AF75C936B6CF9676DC11BFCE0E400
:100150000D47FEF520E6B500D0ED902E0300943556
:1001600077050080841E080000204E0A000000C8A9
:100170000C333333330F986E12831141EF8D2114FA
:10018000893BE65516CFFEE6DB18D1844B381BF7CA
:100190007C1D901DA4BBE424203284725E22810069
:1001A000C9F124ECA1E53D2711241FBECFEFD0E11A
:1001B000DEBFCDBF12E0A0E0B1E0ECEAFAE200E081
:1001C0000BBF02C007900D92AE30B107D9F722E005
:1001D000AEE0B2E001C01D92A133B207E1F70E9488
:1001E00029070C9454150C9400001F920F920FB61F
:1001F0000F9211242F938F939F9380912D029091B2
:100200002E02843F914048F480912D0290912E025D
:10021000019690932E0280932D029F918F912F91A2
:100220000F900FBE0F901F9018951F920F920FB650
:100230000F9211248F9381E080932F028F910F9062
:100240000FBE0F901F9018951F920F920FB60F922E
:1002500011248F93829915C086E08A95F1F700C02A
:10026000839B0FC086E08A95F1F700C0829909C090
:10027000839B07C081E28A95F1F7000081E08093BB
:1002800027028F910F900FBE0F901F9018951F920D
:100290000F920FB60F9211248F93839915C086E0A9
:1002A0008A95F1F700C0829B0FC086E08A95F1F72E
:1002B00000C0829B09C0839907C081E28A95F1F74B
:1002C000000082E0809327028F910F900FBE0F9065
:1002D0001F9018951F920F920FB60F9211248F93B3
:1002E0009F930C9919C083EF91E00197F1F700C03B
:1002F00000000D9B11C083EF91E00197F1F700C062
:1003000000000C9909C00D9B07C091E29A95F1F786
:10031000000081E0809327029F918F910F900FBE84
:100320000F901F9018951F920F920FB60F921124E5
:100330008F939F930D9919C083EF91E00197F1F787
:1003400000C000000C9B11C083EF91E00197F1F712
:1003500000C000000C9B09C00D9907C091E29A955E
:10036000F1F7000082E0809327029F918F910F9018
:100370000FBE0F901F9018951F920F920FB60F92FD
:1003800011248F939F930E9919C083EF91E00197E9
:10039000F1F700C000000F9B11C083EF91E00197BF
:1003A000F1F700C000000E9909C00F9B07C091E251
:1003B0009A95F1F7000082E0809328029F918F9137
:1003C0000F900FBE0F901F9018951F920F920FB6AF
:1003D0000F9211248F939F930F9919C083EF91E08F
:1003E0000197F1F700C000000E9B11C083EF91E070
:1003F0000197F1F700C000000E9B09C00F9907C0DC
:1004000091E29A95F1F7000081E0809328029F9194
:100410008F910F900FBE0F901F90189585E48093D9
:10042000700084E080937400089584EA80937400DF
:100430008091740087FFFCCF089584E98093740055
:1004400008958093730084E8809374008091740011
:1004500087FFFCCF089584EC809374008091740032
:1004600087FFFCCF80917300089584E88093740027
:100470008091740087FFFCCF809173000895809174
:100480007100887F08951F93CF93DF931F92CDB79C
:10049000DEB7162F89830E94150290917100987F14
:1004A0008981983029F084E98093740081E01EC02E
:1004B000880F0E94210290917100987F983129F055
:1004C00084E98093740082E011C0812F0E94210290
:1004D00080917100887F883229F084E980937400CC
:1004E00083E004C084E98093740080E00F90DF9182
:1004F000CF911F9108950F931F93CF93DF931F9276
:10050000CDB7DEB78B0189830E94150290917100EF
:10051000987F8981983029F084E98093740081E084
:1005200016C0880F81600E94210280917100887F2F
:10053000803429F084E98093740082E008C00E942E
:100540003502F801808384E98093740080E00F9085
:10055000DF91CF911F910F9108950F931F93CF9328
:10056000DF931F92CDB7DEB7162F072F89830E9426
:10057000150290917100987F8981983029F084E963
:100580008093740081E02BC0880F0E94210290911B
:100590007100987F983129F084E98093740082E09B
:1005A0001EC0802F0E94210290917100987F983286
:1005B00029F084E98093740083E011C0812F0E94A8
:1005C000210280917100887F883229F084E980932C
:1005D000740084E004C084E98093740080E00F908C
:1005E000DF91CF911F910F910895FF920F931F9369
:1005F000CF93DF931F92CDB7DEB7162F042FF22EC5
:1006000089830E94150290917100987F89819830AA
:1006100029F084E98093740081E033C0880F0E9440
:10062000210290917100987F983129F084E980939C
:10063000740082E026C0812F0E94210290917100F7
:10064000987F983229F084E98093740083E019C080
:10065000802F0E94210290917100987F983241F47E
:100660008F2D0E94210280917100887F883229F0AD
:1006700084E98093740084E004C084E9809374006A
:1006800080E00F90DF91CF911F910F91FF9008951F
:10069000EF92FF920F931F93CF93DF931F92CDB7EB
:1006A000DEB7162FF42EE22E89830E941502909158
:1006B0007100987F8981983029F084E980937400D3
:1006C00081E03BC0880F0E94210290917100987FC9
:1006D000983129F084E98093740082E02EC0812F44
:1006E0000E94210290917100987F983229F084E94C
:1006F0008093740083E021C08F2D0E94210290918D
:100700007100987F983281F48E2D0E942102909181
:100710007100987F983241F4802F0E9421028091CD
:100720007100887F883229F084E98093740084E026
:1007300004C084E98093740080E00F90DF91CF9132
:100740001F910F91FF90EF900895DF92EF92FF922B
:100750000F931F93CF93DF931F92CDB7DEB7162F62
:10076000F42ED22E89830E94150290917100987FF9
:100770008981983029F084E98093740081E043C036
:10078000880F0E94210290917100987F983129F082
:1007900084E98093740082E036C0812F0E94210298
:1007A00090917100987F983229F084E980937400C9
:1007B00083E029C08F2D0E94210290917100987FC3
:1007C0009832C1F48D2D0E94210290917100987F82
:1007D000983281F4802F0E94210290917100987FBD
:1007E000983241F48E2D0E94210280917100887F01
:1007F000883229F084E98093740084E004C084E99D
:100800008093740080E00F90DF91CF911F910F9142
:10081000FF90EF90DF900895EF920F93E82E062F50
:1008200020E040E060E883E20E94A5030F91EF9092
:10083000089584B195B108954091250280910E02EA
:1008400090910F0260912A0270912B022091220256
:100850003091230277276695779566279F70682BDE
:10086000792B30E4239F302D22271124622B732B08
:1008700021E0411101C020E080E090E0922F9295AC
:10088000990F907E682B792B82E20E94AD0288231B
:1008900011F08B5F089580E008958F929F92AF9240
:1008A000BF92CF92DF92EF92FF920F931F93CF935D
:1008B000DF931F92CDB7DEB7142F40910E025091F7
:1008C0000F02222309F492C09B01AC0160E078EC96
:1008D0008FE297E40E94EA1021E030E03093230297
:1008E0002093220220912902233029F426E636E6BD
:1008F00046EE5FE308C020912902253039F426E650
:1009000036E646E65FE30E94EA100EC02091290217
:10091000263051F020912902213031F426E636E6C6
:1009200046EE5FE30E94EB1025E63FEC4BE853E414
:100930000E9425136B017C0120E030E040E853E386
:100940000E9425130E94041260931C0270931D02E2
:1009500080931E0290931F0220E030E040E85BE4A9
:100960000E9425139B01AC01C701B6010E94EA1049
:100970004B015C0120E030E040E857E30E94251382
:100980000E940412609318027093190280931A0255
:1009900090931B0220E030E040E857E40E942513CA
:1009A0009B01AC01C501B4010E94EA1020E030E0D7
:1009B00040E85BE30E9425130E9404126093140236
:1009C00070931502809316029093170220E030E096
:1009D00040E853E4C701B6010E942612609310025A
:1009E000709311028093120290931302609110028F
:1009F0007091110280911202909113020E94D51100
:100A0000E62E609114027091150280911602909169
:100A100017020E94D511062F6091180270911902D9
:100A200080911A0290911B020E94D511262F1E7FE1
:100A300060911C0270911D0280911E0290911F0214
:100A400029830E94D511412F462B298160EC83E236
:100A50000E94A5030F90DF91CF911F910F91FF90FE
:100A6000EF90DF90CF90BF90AF909F908F900895C0
:100A7000EF920F9390912902953051F1A0F49130AB
:100A800039F1933009F050C090912C0280912502E9
:100A900028E0829FA001112420E4929FC00111242C
:100AA000482B68E741C0983011F19A3079F19630BF
:100AB000D9F590912C028091250228E0829FA00117
:100AC000112420E4929FC0011124482B60E62CC021
:100AD00090912C028091250228E0829FA001112490
:100AE00020E4929FC0011124482B60E71DC0909123
:100AF0002C028091250228E0829FA001112420E48D
:100B0000929FC0011124482B60E40EC090912C02EA
:100B10008091250228E0829FA001112420E4929F69
:100B2000C0011124482B61E4E12C00E028E883E2B5
:100B30000E94A5030F91EF90089586EA86B983E499
:100B400087B9369A08958FE083BF8AE081BF87B75F
:100B5000826087BF08951FBC8BE08EBD8BE196E05D
:100B60009BBD8ABD87B7806187BF0895E5E6F0E049
:100B700080818D7F80830895E5E6F0E0808182604A
:100B800080830895AF92BF92CF92DF92EF92FF924F
:100B90000F931F93CF93DF931F92CDB7DEB78823B8
:100BA00021F089830E94380689819091200299233F
:100BB00029F000C000C0000010922002882329F014
:100BC000979A81E08093200201C0979880916500F8
:100BD000816080936500A798A698A598A498A3988B
:100BE000A298A198A0980E94BC050000E3B2C3B2ED
:100BF000F3B203B313B3B3B2A3B2D3B20E94B60538
:100C0000A79AA69AA59AA49AA39AA29AA19AA09AF8
:100C1000AF9AAE9AAD9AAC9AAB9AAA9AA99AA89AA8
:100C2000809165008E7F809365008C2D80749E2D51
:100C30009078E82EE92A9F2D9072FE2CF92A0071F7
:100C40000F291870102B8B2D8470812B9A2D927088
:100C5000982B8D2D8170892B0F90DF91CF911F9153
:100C60000F91FF90EF90DF90CF90BF90AF900895DD
:100C7000CF93DF93CEE3D0E080E00E94C20587FFF0
:100C800002C02197C9F7DF91CF910895CF93DF93E9
:100C900000D0CDB7DEB76A8389830E943806909171
:100CA00020026A818981992329F000C000C00000D8
:100CB00010922002662329F0979A91E090932002E7
:100CC00003C097981092200287FF02C0AF9A01C01C
:100CD000AF9886FF02C0AE9A01C0AE9885FF02C0F1
:100CE000AD9A01C0AD9884FF02C0AC9A01C0AC9827
:100CF00083FF02C0AB9A01C0AB9882FF02C0AA9AE0
:100D000001C0AA9881FF02C0A99A01C0A99880FFDA
:100D100002C0A89A01C0A89800000E94BC0500006B
:100D20000E94B605AF9AAE9AAD9AAC9AAB9AAA9ABF
:100D3000A99AA89A0F900F90DF91CF91089581E022
:100D40000C94C20560E00C94460680580C94A206F0
:100D500081E00C94A20682E00C94A20661E00C945F
:100D60004606CF93DF93EC018991882319F00E9406
:100D7000AE06FACFDF91CF910895CF93DF93FC01B8
:100D80008491EF012196882321F00E94AE06FE0196
:100D9000F7CFDF91CF910895E4E6F0E080818260A3
:100DA00080838F9A808181608083A79AA69AA59A72
:100DB000A49AA39AA29AA19AA09A0E94B60597987B
:100DC000E5E6F0E080818E7F8083AF9AAE9AAD9A9F
:100DD000AC9AAB9AAA9AA99AA89A85EA9EE001973A
:100DE000F1F700C00000AF98AE9800000E94BC056B
:100DF00000000E94B60580E094E00197F1F700C082
:100E000000000E94BC0500000E94B60591E29A9580
:100E1000F1F700000E94BC0500000E94B6058DE0BD
:100E20008A95F1F70000AA9800000E94BC05000016
:100E30000E94B6059DE09A95F1F7000088E00E94B7
:100E4000A2060E94A80686E00E94A2068CE00C94EE
:100E5000A206CF93DF93CDB7DEB7C654D1090FB644
:100E6000F894DEBF0FBECDBF8FEF8ABB87BB84BBBC
:100E700093EF91BB97E092B990EE909361008093CD
:100E800064001BBA18BA15BA8CE082BB88EF83B92C
:100E900083E1809362001092650080E488B980EA63
:100EA00080936A008AEA8ABF8CEF89BF0FB6F894F4
:100EB000A89581B5886181BD11BC0FBE2FE986E878
:100EC00091E0215080409040E1F700C0000082B3E3
:100ED000806682BB17BE0E94A3050E94AB050E94DC
:100EE0000E020E94CC060E94A8060E949D05AFE457
:100EF000B3EC1197F1F700C0000082B38F7982BB89
:100F00006BE970E0CE0101966C010E946A14C60183
:100F10000E94B10680E40E94A5066CE870E0C6015C
:100F20000E946A14C6010E94B10681E080932702E4
:100F30008093240282E08093260210922F028AE09E
:100F4000809321028FEF90E090932E0280932D02E8
:100F50001092290210922B0210922A02109225025E
:100F600010922C021092300260E088E10E940C0482
:100F70009FE7AAE1B6E09150A040B040E1F700C081
:100F800000000E94A8067894412C512C48E1642E60
:100F90002FEF2FAF712C23961FAE2397A12CB12CCE
:100FA0001EAE10E000E15BEDF52E65E4E62E8091CB
:100FB0002F02882309F40EC284B095B0C1010A97AC
:100FC000881699062CF04496881599050CF083C074
:100FD000A401525055954795559547954EAF20E041
:100FE000612F702F8F2D9E2D0E944D048823B9F004
:100FF0001F928F9382E091E09F938F93DF92CF9225
:101000000E94C61480E40E94A506C6010E94B10693
:101010000F900F900F900F900F900F905BC084E097
:101020000E94A50620E030E04AE754E4612F702FCB
:101030008F2D9E2D0E94261224966FAF2497259601
:101040007FAF2597382E292E20E030E04AE754E480
:10105000612F702F8F2D9E2D0E945C1120E030E0BB
:10106000A9010E94EB100E9404122F923F92259634
:10107000AFAD2597AF932496BFAD2497BF930E9441
:10108000CE117F936F9382E191E09F938F93DF92D4
:10109000CF920E94C614C6010E94B1068FE00E9442
:1010A000A5060FB6F894DEBF0FBECDBF9EAD9B3038
:1010B0001CF061E271E008C0AEADA63F1CF463E233
:1010C00071E002C06CE371E0C6010E947C14C601AD
:1010D0000E94B1061401809100018F3F29F0809198
:1010E00000018F5F80930001809101018930D8F465
:1010F000809101018F5F809301018091010189300E
:1011000040F4009B06C081E0809326028FEF80931D
:10111000010180910101893049F4009907C082E002
:101120008093260203C0009B10920101019903C025
:1011300081E08093240221962FAD219722963FAD26
:10114000229726964FAD269727965FAD2797612F5A
:10115000702F8F2D9E2D0E945711882309F487C070
:1011600084E00E94A50620E030E04AE754E4612FC5
:10117000702F8F2D9E2D0E942612962E872E21963F
:101180008FAF219722969FAF229720E030E04AE769
:1011900054E4612F702F8F2D9E2D0E945C1120E052
:1011A00030E0A9010E94EB100E9404122296BFAD0C
:1011B0002297BF9321962FAD21972F938F929F92C5
:1011C0000E94CE117F936F9382E191E09F938F9362
:1011D000DF92CF920E94C614C6010E94B1068FE032
:1011E0000E94A5060FB6F894DEBF0FBECDBF9EAD20
:1011F0009B301CF061E271E008C0AEADA63F1CF46C
:1012000063E271E002C06CE371E0C6010E947C14ED
:10121000C6010E94B10621E04EAD612F702F8F2DC7
:101220009E2D0E944D048823B1F01F928F9382E07F
:1012300091E09F938F93DF92CF920E94C61480E437
:101240000E94A506C6010E94B1060F900F900F9054
:101250000F900F900F9021961FAF219722960FAFFE
:1012600022972696FFAE26972796EFAE2797BE01C8
:10127000635C7F4F83E20E947B02811120C08DADB1
:1012800087FF10C0BFADB130E9F081E090E09093EE
:101290002B0280932A020E941C04969A959821E0C2
:1012A0002FAF10C08FAD882369F010922B021092DF
:1012B0002A020E941C04959A96981FAE03C082B31E
:1012C0008F7982BB8DAD8F73B81608F4B82EA394B6
:1012D00080913002811103C092E09A1548F080910C
:1012E0003002882309F473C0A2E0AA1508F06FC089
:1012F000B3E0BB1518F48CEF8B0D01C080E090912A
:1013000000019A3008F461C090913002992329F0CD
:101310008A3018F065E271E049C09091300299235B
:1013200029F08A3088F4109230024DC0823028F4BF
:101330001F928F9381E391E014C0843028F41F92B0
:101340008F938EE391E00DC0863028F41F928F9327
:101350008BE491E006C0883038F41F928F9388E5C3
:1013600091E09F938F9308C08A30B8F41F928F93B7
:10137000A5E6B1E0BF93AF93DF92CF920E94C6146F
:1013800080E40E94A506C6010E94B1060F900F904E
:101390000F900F900F900F9018C08C3018F462E7E8
:1013A00071E004C08C3061F46EE771E0C6010E9408
:1013B0007C1480E40E94A506C6010E94B10605C007
:1013C00081E0809330020E941C04A12CB12C109269
:1013D0002F0273C080912402882309F46EC080918B
:1013E00029028330A9F018F4813031F045C08530EE
:1013F000D9F0863029F140C083E0809329020E9411
:10140000380581114AC00E94A5066AE871E03FC014
:1014100085E0809329020E94380581113EC00E9418
:10142000A5066FE871E033C086E0809329020E9430
:101430003805811132C00E94A50664E971E027C019
:1014400080912102883C60F488E0809329020E9408
:101450003805811122C00E94A50669E971E017C014
:101460008AE0809329020E943805811116C00E94EB
:10147000A5066EE971E00BC081E0809329020E940D
:10148000380581110AC00E94A50663EA71E0C60111
:101490000E947C14C6010E94B10683E294EF01977A
:1014A000F1F700C0000021E04EAD612F702F8F2DAD
:1014B0009E2D0E944D0410922402809126028823C2
:1014C00009F445C180912602823009F4A2C020E0CF
:1014D00030EC4AE555E4612F702F8F2D9E2D0E9430
:1014E000571187FD67C020E030EC4AED55E4612FCD
:1014F000702F8F2D9E2D0E94571187FD60C020E018
:1015000030ED4DE156E4612F702F8F2D9E2D0E94FE
:10151000571187FD5BC020E030EC4AE556E4612FAF
:10152000702F8F2D9E2D0E94571187FD54C020E0F3
:1015300038E24DE856E4612F702F8F2D9E2D0E94CA
:10154000571187FD4DC020E030E144EA56E4612F99
:10155000702F8F2D9E2D0E94571187FD46C020E0D1
:1015600034E742EC56E4612F702F8F2D9E2D0E94A0
:10157000571187FD3FC020E030EC4AED56E4612F63
:10158000702F8F2D9E2D0E94571187FD38C020E0AF
:1015900038EA4EED56E4612F702F8F2D9E2D0E945C
:1015A000571110E087FD30C000E492EEF92E24E4DC
:1015B000E22E2FC010E000E68BE5F82E04C010E00C
:1015C00000E1BBEDFB2EA5E4EA2E23C010E008EFFE
:1015D000FDE1FF2E1CC010E008EEEAE5FE2E17C06C
:1015E00010E00CE37DE8F72E12C010E004E264EA9C
:1015F000F62E0DC010E008E852ECF52E08C010E001
:1016000004ED4AEDF42E03C000E73FEDF32E26E48F
:10161000E22E84E00E94A50620E030E04AE754E490
:10162000612F702F8F2D9E2D0E942612962E872EB1
:1016300024968FAF249725969FAF259720E030E022
:101640004AE754E4612F702F8F2D9E2D0E945C116C
:1016500020E030E0A9010E94EB100E9404122596C0
:10166000AFAD2597AF932496BFAD2497BF938F92CC
:101670009F920E94CE117F936F9382E191E09F939E
:101680008F93DF92CF920E94C614C6010E94B106CA
:101690008FE00E94A5060FB6F894DEBF0FBECDBF47
:1016A0009EAD9B301CF061E271E008C0AEADA63F7C
:1016B0001CF463E271E002C06CE371E0C6010E94B9
:1016C0007C14C6010E94B10621E04EAD612F702F3F
:1016D0008F2D9E2D0E944D048823B1F01F928F9371
:1016E00088EA91E09F938F93DF92CF920E94C61475
:1016F00080E40E94A506C6010E94B1060F900F90DB
:101700000F900F900F900F900E9438058823B1F032
:101710001F928F938DEB91E09F938F93DF92CF92E7
:101720000E94C61480E40E94A506C6010E94B1066C
:101730000F900F900F900F900F900F908FE493ECFD
:101740000197F1F700C000001092260230CC809182
:101750002702882309F412C18091270223969FADA6
:101760002397891749F010922E0210922D02809132
:101770002702412C512CFCC090912702913009F096
:1017800074C080912D0290912E0210922E02109220
:101790002D024E9748F4AFEF4A1A5A0AB5EF4B168E
:1017A000B1E05B0628F416C044244394512C2DC0AC
:1017B00080912902883029F420E030E040EA51E4A9
:1017C00048C0809129028A3031F520E030E048E4B9
:1017D00052E43FC027E942165104B8F08091290233
:1017E000883029F420E030E040EA50E432C08091B3
:1017F00029028A3029F420E030E048EC51E429C085
:1018000020E030E040E05FE324C08091290288308E
:1018100061F40B9B05C020E030E040E85FE319C0B5
:1018200020E030E040E251E414C0809129028A3087
:1018300029F420E030E040E250E40BC00B9B05C0EF
:101840002DEC3CEC4CE45DE304C020E030E040E0F3
:1018500050E4612F702F8F2D9E2D0E94EB10162FBC
:10186000072FF82EE92E81E083C090912702923055
:1018700009F07EC080912D0290912E024E97A0F427
:101880008091270223969FAD239798130DC0109245
:101890002E0210922D02AFEF4A1A5A0AB5EF4B16DC
:1018A000B1E05B0648F41AC010922E0210922D028D
:1018B00044244394512C2DC080912902883029F46E
:1018C00020E030E040EA51E448C0809129028A30AB
:1018D00031F520E030E048E452E43FC027E9421609
:1018E0005104B8F080912902883029F420E030E0DA
:1018F00040EA50E432C0809129028A3029F420E085
:1019000030E048EC51E429C020E030E040E05FE303
:1019100024C080912902883061F40B9B05C020E02F
:1019200030E040E85FE319C020E030E040E251E4FD
:1019300014C0809129028A3029F420E030E040E28E
:1019400050E40BC00B9B05C02DEC3CEC4CE45DE37C
:1019500004C020E030E040E050E4612F702F8F2D74
:101960009E2D0E94EA10162F072FF82EE92E82E0F6
:101970001092270223968FAF239719CB80912802CC
:10198000882309F414CB80910001823008F47AC0D6
:10199000049B35C080912802813029F48EE18615A0
:1019A00040F0639406C0809128028230E1F4611017
:1019B0006A948FE190E0861991099F938F9382ED4D
:1019C00091E09F938F93DF92CF920E94C61480E4A0
:1019D0000E94A506C6010E94B1060F900F900F90BD
:1019E0000F900F900F90672D862D0E940C04882376
:1019F00009F446C01F928F938DED91E02FC0809126
:101A00002802823029F49EE1971540F0739406C0B5
:101A1000809128028130C1F471107A941F927F92D4
:101A200081EF91E09F938F93DF92CF920E94C61433
:101A300080E40E94A506C6010E94B1060F900F9097
:101A40000F900F900F900F90672D862D0E940C0421
:101A50008823B1F01F928F938BEF91E09F938F9328
:101A6000DF92CF920E94C61480E40E94A506C601B0
:101A70000E94B1060F900F900F900F900F900F9053
:101A8000109200011092280292CA2F923F924F9218
:101A90005F926F927F928F929F92AF92BF92CF92FE
:101AA000DF92EF92FF920F931F93CF93DF93CDB707
:101AB000DEB763970FB6F894DEBF0FBECDBF6C01E3
:101AC0004B012A01FC0117821682838181FF43C3E7
:101AD000AE014F5F5F4F3A01F6019381F40193FD30
:101AE000859193FF81914F01882309F430C385329A
:101AF00039F493FD859193FF81914F01853239F43B
:101B0000B60190E00E948E1452012501E5CF10E04D
:101B1000F12C20E02032A0F48B3269F030F48032D6
:101B200059F0833269F420612CC08D3239F0803352
:101B300039F4216026C02260246023C0286021C0BF
:101B400027FD27C030ED380F3A3078F426FF06C065
:101B5000FAE01F9F300D1124132F13C04AE0F49EAA
:101B6000300D1124F32E20620CC08E3221F426FD9C
:101B7000EEC2206406C08C3611F4206802C088369C
:101B800041F4F40193FD859193FF81914F018111FF
:101B9000C1CF9BEB980F933018F42061805E06C094
:101BA0009BE9980F933008F071C12F7E26FF16E055
:101BB0002F73322E853619F42064322E08C08636F3
:101BC00021F4F22FF0683F2E02C01111115037FEA0
:101BD00007C01C3350F4EE24E394E10E27E00BC061
:101BE000183038F027E017E005C027E04CE3E42E7A
:101BF00002C0212FE12C520144E0A40EB11CF201DD
:101C000060817181828193810E2DA3010E949213C4
:101C10002C01098100FF02C003FF07C031FC08C08E
:101C200032FE09C030E2232E07C02DE2222E04C06E
:101C30009BE2292E01C0212C802F8C7019F02110DD
:101C400068C2A8C237FE0FC0E40C04FF04C08A813A
:101C5000813309F4EA941E1474F5F8E0FE1578F562
:101C600088E0E82E2CC036FC2AC0812F90E0841535
:101C700095059CF02CEF42162FEF520674F0432D81
:101C80004068342E0AC0E2E0F0E0EC0FFD1FE10FE7
:101C9000F11D8081803319F411501111F4CF37FEFA
:101CA0000EC0EE24E394E10E812F90E04816590611
:101CB0002CF4141904C0EE24E39401C010E037FEA4
:101CC00006C01414150434F4C201019605C085E061
:101CD00090E002C081E090E021100196112331F0E4
:101CE000212F30E02F5F3F4F820F931F2F2D30E0C9
:101CF0008217930714F4F81A01C0F12C832D897010
:101D000049F4FF2039F0B60180E290E00E948E1481
:101D1000FA94F7CF222029F0B601822D90E00E949C
:101D20008E1433FC09C0FF2039F0B60180E390E047
:101D30000E948E14FA94F7CF37FE5AC0942D852D49
:101D400057FE02C090E080E0292E382E20E030E0DF
:101D5000A2014E1951095D874C87A201421953090E
:101D60005F874E87612F70E044275527461B570B2E
:101D7000598B488B5FEF2516350649F4B6018EE284
:101D800090E02A8B3B8B0E948E143B892A89421457
:101D900053046CF04C855D854215530544F4EE8583
:101DA000FF85E20FF31FE60DF71D818101C080E37F
:101DB00051E0251A31082F5F3F4F48895989241671
:101DC00035064CF0B60190E02A8B3B8B0E948E14B6
:101DD0002A893B89CFCF2414350439F49A8196336C
:101DE00018F4953311F404FF81E3B60190E04BC081
:101DF0008A81813309F00F7EB60190E00E948E1433
:101E0000111105C034FC18C085E690E017C0B6017A
:101E10008EE290E00E948E1482E0EE24E394E80EBD
:101E2000F301E80FF11D8081B60190E00E948E144D
:101E300011508E2D91F7E6CF85E490E0B6010E9417
:101E40008E1457FC05C04114510439F404FF05C039
:101E50005194419451088DE201C08BE2B60190E0AB
:101E60000E948E1480E39AE0491651042CF08F5F93
:101E70005AE0451A5108F7CFB60190E00E948E143F
:101E8000B601C201C0960E948E1457C1833631F04C
:101E9000833779F0833509F058C021C05201E2E060
:101EA000AE0EB11CF2018081898301E010E02301B4
:101EB00014C05201F2E0AF0EB11CF201408051801B
:101EC00026FF03C0612F70E002C06FEF7FEFC201F9
:101ED0002A8B0E9483148C012A892F7715C0520106
:101EE000F2E0AF0EB11CF2014080518026FF03C02A
:101EF000612F70E002C06FEF7FEFC2012A8B0E945A
:101F000071148C012A892068322E23FD1AC08F2D6E
:101F100090E008171907A8F4B60180E290E00E944B
:101F20008E14FA94F4CFF20137FC859137FE81913B
:101F30002F01B60190E00E948E14F110FA94015026
:101F400011090115110579F7F8C0843611F08936A9
:101F500059F5520127FF09C0F4E0AF0EB11CF201A0
:101F600060817181828193810AC0F2E0AF0EB11C61
:101F7000F20160817181072E000C880B990B2F767E
:101F8000322E97FF09C090958095709561957F4F8F
:101F90008F4F9F4F2068322E2AE030E0A3010E942D
:101FA000F614E82EE6183FC0022F853721F40F7E85
:101FB0002AE030E01DC0097F8F3691F018F4883593
:101FC00059F0C5C0803719F0883711F0C0C00061E2
:101FD00004FF09C0046007C024FF08C0066006C0F3
:101FE00028E030E005C020E130E002C020E132E02E
:101FF000520107FF09C0F4E0AF0EB11CF20160818D
:1020000071818281938108C0F2E0AF0EB11CF201B0
:102010006081718180E090E0A3010E94F614E82EB7
:10202000E6180F77302E36FE0BC0332D3E7FE116BB
:1020300050F434FE0AC032FC08C0332D3E7E05C089
:102040000E2D332D03C00E2D01C0012F34FF0CC007
:10205000FE01EE0DF11D8081803311F4397E08C040
:1020600032FF05C00E5F04C0832F867809F00F5F32
:1020700033FD13C030FF06C01E2D0F1518F41F0DC1
:10208000101B0F2D0F1568F4B60180E290E03B8B1A
:102090000E948E140F5F3B89F5CF0F1510F4F01AD4
:1020A00001C0F12C34FF12C0B60180E390E03B8BFD
:1020B0000E948E143B8932FF17C031FD03C088E7B0
:1020C00090E002C088E590E0B6010CC0832F8678CE
:1020D00059F031FF02C08BE201C080E237FD8DE292
:1020E000B60190E00E948E14E11638F4B60180E348
:1020F00090E00E948E141150F7CFEA94F301EE0D98
:10210000F11D8081B60190E00E948E14E110F5CFA0
:1021100014C0F4E0FF1558F584E0F81A33FE1EC031
:10212000211026C003FF2AC006EA10E0F32DF0714B
:102130003F2EF8018491811124C0FF2009F4E5CCE1
:10214000B60180E290E00E948E14FA94F6CFF60178
:102150008681978126C08FEF9FEF23C0B60180E272
:1021600090E00E948E14FA94F110F8CFD9CFF12CA0
:10217000B601822D90E00E948E14D4CF0AEA10E0BE
:10218000D5CF31108052B60190E00E948E140F5FBF
:102190001F4FCFCF23E02F1510F483E0BECFF12CDB
:1021A000C1CF63960FB6F894DEBF0FBECDBFDF91EF
:1021B000CF911F910F91FF90EF90DF90CF90BF9044
:1021C000AF909F908F907F906F905F904F903F90D7
:1021D0002F9008955058BB27AA270E9402110C94F3
:1021E000D3120E94C51238F00E94CC1220F039F4AC
:1021F0009F3F19F426F40C94C2120EF4E095E7FB0D
:102200000C949312E92F0E94E41258F3BA17620754
:1022100073078407950720F079F4A6F50C941E1334
:102220000EF4E0950B2EBA2FA02D0B01B9019001F1
:102230000C01CA01A0011124FF27591B99F0593F35
:1022400050F4503E68F11A16F040A22F232F342F7D
:102250004427585FF3CF469537952795A795F040CB
:102260005395C9F77EF41F16BA0B620B730B840BE0
:10227000BAF09150A1F0FF0FBB1F661F771F881F98
:10228000C2F70EC0BA0F621F731F841F48F48795F0
:1022900077956795B795F7959E3F08F0B0CF9395E2
:1022A000880F08F09927EE0F9795879508950E945B
:1022B0006F1208F481E008950E9470110C94D312FB
:1022C0000E94CC1258F00E94C51240F029F45F3FE2
:1022D00029F00C94931251110C941F130C94C212F8
:1022E0000E94E41268F39923B1F3552391F3951BEF
:1022F000550BBB27AA2762177307840738F09F5F27
:102300005F4F220F331F441FAA1FA9F335D00E2E93
:102310003AF0E0E832D091505040E695001CCAF700
:102320002BD0FE2F29D0660F771F881FBB1F2617C3
:1023300037074807AB07B0E809F0BB0B802DBF019A
:10234000FF2793585F4F3AF09E3F510578F00C9469
:1023500093120C941F135F3FE4F3983ED4F38695D9
:1023600077956795B795F7959F5FC9F7880F911D8A
:102370009695879597F90895E1E0660F771F881F76
:10238000BB1F621773078407BA0720F0621B730B29
:10239000840BBA0BEE1F88F7E09508950E94D511C3
:1023A0006894B1110C941F1308950E94EC1288F0E8
:1023B0009F5798F0B92F9927B751B0F0E1F0660F09
:1023C000771F881F991F1AF0BA95C9F714C0B1304A
:1023D00091F00E941E13B1E008950C941E13672F14
:1023E000782F8827B85F39F0B93FCCF38695779579
:1023F0006795B395D9F73EF4909580957095619562
:102400007F4F8F4F9F4F08950E94061390F09F3784
:1024100048F4911116F00C941F1360E070E080E80E
:102420009FEB089526F41B16611D711D811D0C94F0
:1024300099120C94B4120E94C51220F019F00E9457
:10244000CC1250F40C94C2120C941F13E92F0E946A
:10245000E41288F35523B1F3E7FB6217730784078F
:102460009507A8F189F3E92FFF2788232AF03197F0
:10247000660F771F881FDAF7952F5527442332F010
:1024800091505040220F331F441FD2F7BB27E91B46
:10249000F50B621B730B840BB109B1F222F4620FCE
:1024A000731F841FB11D31972AF0660F771F881F95
:1024B000BB1FEFCF9150504062F041F0882332F0C3
:1024C000660F771F881F91505040C1F793950C9469
:1024D000B4128695779567959F5FD9F7F7CF990FD7
:1024E0000008550FAA0BE0E8FEEF16161706E807DE
:1024F000F907C0F012161306E407F50798F0621BFF
:10250000730B840B950B39F40A2661F0232B242BD3
:10251000252B21F408950A2609F4A140A6958FEFF2
:10252000811D811D089597F99F6780E870E060E044
:102530000895882371F4772321F09850872B762F04
:1025400007C0662311F499270DC09051862B70E0C7
:1025500060E02AF09A95660F771F881FDAF7880FD8
:102560009695879597F908959F3F31F0915020F403
:10257000879577956795B795880F911D969587955F
:1025800097F908959FEF80EC089500240A94161699
:10259000170618060906089500240A941216130651
:1025A000140605060895092E0394000C11F48823DF
:1025B00052F0BB0F40F4BF2B11F460FF04C06F5FFB
:1025C0007F4F8F4F9F4F089557FD9058440F551FD1
:1025D00059F05F3F71F04795880F97FB991F61F0A5
:1025E0009F3F79F087950895121613061406551F1C
:1025F000F2CF4695F1DF08C0161617061806991F88
:10260000F1CF869571056105089408950E94EC123A
:10261000A0F0BEE7B91788F4BB279F3860F4161600
:10262000B11D672F782F8827985FF7CF869577950C
:102630006795B11D93959639C8F30895E894BB2723
:1026400066277727CB0197F908950E9438130C94D9
:10265000D3120E94C51238F00E94CC1220F09523AC
:1026600011F00C9493120C94C21211240C941F13A9
:102670000E94E41270F3959FC1F3950F50E0551F2F
:10268000629FF001729FBB27F00DB11D639FAA27C7
:10269000F00DB11DAA1F649F6627B00DA11D661F16
:1026A000829F2227B00DA11D621F739FB00DA11D37
:1026B000621F839FA00D611D221F749F3327A00DF1
:1026C000611D231F849F600D211D822F762F6A2F8D
:1026D00011249F5750409AF0F1F088234AF0EE0FF2
:1026E000FF1FBB1F661F771F881F91505040A9F71F
:1026F0009E3F510580F00C9493120C941F135F3F82
:10270000E4F3983ED4F3869577956795B795F7955A
:10271000E7959F5FC1F7FE2B880F911D96958795D2
:1027200097F90895283008F027E03327DA01990F48
:10273000311D87FD916000966105710539F43260A5
:102740002E5F3D9330E32A95E1F708959F3F30F0E7
:1027500080387105610509F03C5F3C5F3D93913025
:1027600008F08068911DDF93CF931F930F93FF9222
:10277000EF92192F987F9695E92F96959695E90FE8
:10278000FF27E85FFE4F99273327EE24FF24A70198
:10279000E70105900894079428F4360FE71EF81E09
:1027A000491F511D660F771F881F991F0694A1F7B7
:1027B0000590079428F4E70EF81E491F561FC11D07
:1027C000770F881F991F661F0694A1F7059007943D
:1027D00028F4F80E491F561FC71FD11D880F991FD7
:1027E000661F771F0694A1F70590079420F4490F00
:1027F000561FC71FD81F990F661F771F881F069483
:10280000A9F784911095177041F0D695C795579503
:102810004795F794E7941A95C1F7EEEAF0E06894CB
:102820001590159135916591959105907FE273957D
:10283000E118F10A430B560BC90BD009C0F7E10CA4
:10284000F11E431F561FC91FD01D7EF4703311F4B3
:102850008A95E6CFE894015030F0080F0AF400277B
:10286000021708F4202F2395022F7A3328F079E3FA
:102870007D932A95E9F710C07D932A9589F60694F1
:1028800097956795379517951794E118F10A430BBB
:10289000560BC90BD00998F023957E9173957A3326
:1028A00008F070E37C932013B8F77E9170617D93FC
:1028B00030F0839571E37D9370E32A95E1F711245D
:1028C000EF90FF900F911F91CF91DF91992787FD96
:1028D00090950895FB01DC0105900D920020E1F731
:1028E0000895FC010590615070400110D8F7809563
:1028F00090958E0F9F1F0895FB01DC0101900D92B2
:102900000020E1F70895FC01615070400190011032
:10291000D8F7809590958E0F9F1F08950F931F9362
:10292000CF93DF93FB01238121FD03C08FEF9FEF46
:1029300028C022FF16C04681578124813581421765
:10294000530744F4A081B1819D012F5F3F4F318334
:1029500020838C93268137812F5F3F4F37832683D7
:1029600010C0EB01092F182F0084F185E02D099587
:10297000892BE1F68E819F8101969F838E83812F23
:10298000902FDF91CF911F910F9108950F931F9377
:10299000CF93DF93CDB7DEB72E970FB6F894DEBF97
:1029A0000FBECDBF0D891E8986E08C831A830983F3
:1029B0008FEF9FE79E838D83AE01475E5F4F6F89E8
:1029C000788DCE0101960E94450D2F813885F80142
:1029D000E20FF31F10822E960FB6F894DEBF0FBEE3
:1029E000CDBFDF91CF911F910F910895FA01AA27D2
:1029F000283051F1203181F1E8946F936E7F6E5F42
:102A00007F4F8F4F9F4FAF4FB1E03ED0B4E03CD0EF
:102A1000670F781F891F9A1FA11D680F791F8A1FD2
:102A2000911DA11D6A0F711D811D911DA11D20D039
:102A300009F468943F912AE0269F11243019305DF3
:102A40003193DEF6CF010895462F4770405D4193E4
:102A5000B3E00FD0C9F7F6CF462F4F70405D4A3331
:102A600018F0495D31FD4052419302D0A9F7EACFF9
:102A7000B4E0A6959795879577956795BA95C9F728
:102A800000976105710508959B01AC010A2E06941B
:102A90005795479537952795BA95C9F7620F731FD4
:0C2AA000841F951FA01D0895F894FFCF1F
:102AAC00FFFF457272202578202020202020202036
:102ABC00200025642C2530362E3266202020202044
:102ACC00002B002D00532D2D2D392B2B2B202020AE
:102ADC000053256420202020202020202000532D6E
:102AEC002564202020202020202000532D2D25641B
:102AFC002020202020202000532D2D2D2564202047
:102B0C002020202000532D2D2D2D25642020202029
:102B1C002000532D2D2D2D392B2020202000532D1E
:102B2C002D2D2D392B2B20202000555342200043D6
:102B3C005720200043574E2000414D202000464D89
:102B4C002020004C53422000457272206672657141
:102B5C002025782020202020202020200045727263
:102B6C0020736574742025782020202020202020BC
:102B7C002000566F6C2025642020202000457272A6
:102B8C0020566F6C2025782020202020202020200B
:102B9C0000537120256420202020004572722053A0
:0E2BAC007120257820202020202020202000CD
:00000001FF
