:100000000C94D4000C94F3000C94F3000C94240191
:100010000C9447010C946A010C9493010C94BC015C
:100020000C94E5010C94F3000C94F3000C94F30091
:100030000C9415010C94F3000C94F3000C94F5004F
:100040000C94F3000C94F3000C94F3000C94F30064
:100050000C94F3000C94F3000C94F3000C94F30054
:100060000C94F3000C94F3000C94F3000C94F30044
:100070000C94F3000C94F3000C94F3000C94F30034
:100080000C94F3000C94F3000C94F300537461721D
:1000900074696E6720726164696F002A2A2A20538E
:1000A0004D3656465A006E616E00696E660000401D
:1000B0007A10F35A00A0724E18090010A5D4E80077
:1000C00000E87648170000E40B54020000CA9A3B8F
:1000D000000000E1F5050000809698000000404215
:1000E0000F000000A08601000000102700000000A3
:1000F000E803000000006400000000000A000000A7
:1001000000000100000000002C76D888DC674F0852
:1001100023DFC1DFAE59E1B1B796E5E3E453C63A58
:10012000E651997696E8E6C28426EB898C9B62EDCF
:10013000407C6FFCEFBC9C9F40F2BAA56FA5F49089
:10014000055A2AF75C936B6CF9676DC11BFCE0E400
:100150000D47FEF520E6B500D0ED902E0300943556
:1001600077050080841E080000204E0A000000C8A9
:100170000C333333330F986E12831141EF8D2114FA
:10018000893BE65516CFFEE6DB18D1844B381BF7CA
:100190007C1D901DA4BBE424203284725E22810069
:1001A000C9F124ECA1E53D2711241FBECFEFD0E11A
:1001B000DEBFCDBF12E0A0E0B1E0E8E3FCE200E08A
:1001C0000BBF02C007900D92AC30B107D9F722E007
:1001D000ACE0B2E001C01D92A633B207E1F70E9485
:1001E000DB070C941A160C9400001F920F920FB6A6
:1001F0000F9211242F938F939F93809132029091AD
:100200003302843F914048F480913202909133024E
:10021000019690933302809332029F918F912F9198
:100220000F900FBE0F901F9018951F920F920FB650
:100230000F9211248F9381E0809334028F910F905D
:100240000FBE0F901F9018951F920F920FB60F922E
:1002500011248F93829915C086E08A95F1F700C02A
:10026000839B0FC086E08A95F1F700C0829909C090
:10027000839B07C081E28A95F1F7000081E08093BB
:100280002C028F910F900FBE0F901F9018951F9208
:100290000F920FB60F9211248F93839915C086E0A9
:1002A0008A95F1F700C0829B0FC086E08A95F1F72E
:1002B00000C0829B09C0839907C081E28A95F1F74B
:1002C000000082E080932C028F910F900FBE0F9060
:1002D0001F9018951F920F920FB60F9211248F93B3
:1002E0009F930C9919C083EF91E00197F1F700C03B
:1002F00000000D9B11C083EF91E00197F1F700C062
:1003000000000C9909C00D9B07C091E29A95F1F786
:10031000000081E080932C029F918F910F900FBE7F
:100320000F901F9018951F920F920FB60F921124E5
:100330008F939F930D9919C083EF91E00197F1F787
:1003400000C000000C9B11C083EF91E00197F1F712
:1003500000C000000C9B09C00D9907C091E29A955E
:10036000F1F7000082E080932C029F918F910F9013
:100370000FBE0F901F9018951F920F920FB60F92FD
:1003800011248F939F930E9919C083EF91E00197E9
:10039000F1F700C000000F9B11C083EF91E00197BF
:1003A000F1F700C000000E9909C00F9B07C091E251
:1003B0009A95F1F7000082E080932D029F918F9132
:1003C0000F900FBE0F901F9018951F920F920FB6AF
:1003D0000F9211248F939F930F9919C083EF91E08F
:1003E0000197F1F700C000000E9B11C083EF91E070
:1003F0000197F1F700C000000E9B09C00F9907C0DC
:1004000091E29A95F1F7000081E080932D029F918F
:100410008F910F900FBE0F901F90189585E48093D9
:10042000700084E080937400089584EA80937400DF
:100430008091740087FFFCCF089584E98093740055
:1004400008958093730084E8809374008091740011
:1004500087FFFCCF089584EC809374008091740032
:1004600087FFFCCF80917300089584E88093740027
:100470008091740087FFFCCF809173000895809174
:100480007100887F08951F93CF93DF931F92CDB79C
:10049000DEB7162F89830E94150290917100987F14
:1004A0008981983029F084E98093740081E01EC02E
:1004B000880F0E94210290917100987F983129F055
:1004C00084E98093740082E011C0812F0E94210290
:1004D00080917100887F883229F084E980937400CC
:1004E00083E004C084E98093740080E00F90DF9182
:1004F000CF911F9108950F931F93CF93DF931F9276
:10050000CDB7DEB78B0189830E94150290917100EF
:10051000987F8981983029F084E98093740081E084
:1005200016C0880F81600E94210280917100887F2F
:10053000803429F084E98093740082E008C00E942E
:100540003502F801808384E98093740080E00F9085
:10055000DF91CF911F910F9108950F931F93CF9328
:10056000DF931F92CDB7DEB7162F072F89830E9426
:10057000150290917100987F8981983029F084E963
:100580008093740081E02BC0880F0E94210290911B
:100590007100987F983129F084E98093740082E09B
:1005A0001EC0802F0E94210290917100987F983286
:1005B00029F084E98093740083E011C0812F0E94A8
:1005C000210280917100887F883229F084E980932C
:1005D000740084E004C084E98093740080E00F908C
:1005E000DF91CF911F910F910895FF920F931F9369
:1005F000CF93DF931F92CDB7DEB7162F042FF22EC5
:1006000089830E94150290917100987F89819830AA
:1006100029F084E98093740081E033C0880F0E9440
:10062000210290917100987F983129F084E980939C
:10063000740082E026C0812F0E94210290917100F7
:10064000987F983229F084E98093740083E019C080
:10065000802F0E94210290917100987F983241F47E
:100660008F2D0E94210280917100887F883229F0AD
:1006700084E98093740084E004C084E9809374006A
:1006800080E00F90DF91CF911F910F91FF9008951F
:10069000EF92FF920F931F93CF93DF931F92CDB7EB
:1006A000DEB7162FF42EE22E89830E941502909158
:1006B0007100987F8981983029F084E980937400D3
:1006C00081E03BC0880F0E94210290917100987FC9
:1006D000983129F084E98093740082E02EC0812F44
:1006E0000E94210290917100987F983229F084E94C
:1006F0008093740083E021C08F2D0E94210290918D
:100700007100987F983281F48E2D0E942102909181
:100710007100987F983241F4802F0E9421028091CD
:100720007100887F883229F084E98093740084E026
:1007300004C084E98093740080E00F90DF91CF9132
:100740001F910F91FF90EF900895DF92EF92FF922B
:100750000F931F93CF93DF931F92CDB7DEB7162F62
:10076000F42ED22E89830E94150290917100987FF9
:100770008981983029F084E98093740081E043C036
:10078000880F0E94210290917100987F983129F082
:1007900084E98093740082E036C0812F0E94210298
:1007A00090917100987F983229F084E980937400C9
:1007B00083E029C08F2D0E94210290917100987FC3
:1007C0009832C1F48D2D0E94210290917100987F82
:1007D000983281F4802F0E94210290917100987FBD
:1007E000983241F48E2D0E94210280917100887F01
:1007F000883229F084E98093740084E004C084E99D
:100800008093740080E00F90DF91CF911F910F9142
:10081000FF90EF90DF9008958F929F92AF92BF92DA
:10082000CF92DF92EF92FF920F931F93CF93DF93BC
:10083000CDB7DEB7EC970FB6F894DEBF0FBECDBFD5
:1008400080912E02883041F080912E02893021F073
:1008500080912E028A3091F46091280270912902D1
:1008600080912A0290912B020E94341460932802F6
:100870007093290280932A0290932B0284E00E94B5
:100880005707609128027091290280912A02909165
:100890002B0220E030E04AE754E40E94C812F62E12
:1008A000E72ED82EC92E60912802709129028091DE
:1008B0002A0290912B0200910C0210910D0220E06F
:1008C00030E04AE754E40E94C1114B015C01B801D9
:1008D000110F880B990B0E946B129B01AC01C50193
:1008E000B4010E9450110E94A612CF92DF92EF92A3
:1008F000FF920E9433127F936F9382E091E09F9367
:100900008F938E010F5F1F4F1F930F930E948C15C3
:10091000C8010E9463078FE00E94570780910E0272
:100920000FB6F894DEBF0FBECDBF8B3018F061E17B
:1009300071E004C080910E026AE371E0C8010E9478
:100940004215C8010E946307EC960FB6F894DEBF0B
:100950000FBECDBFDF91CF911F910F91FF90EF9010
:10096000DF90CF90BF90AF909F908F900895EF92BF
:100970000F93E82E062F20E040E060E883E20E941B
:10098000A5030F91EF90089584B195B1089540911A
:10099000260280910F029091100260912F027091B7
:1009A00030022091230230912402772766957795B3
:1009B00066279F70682B792B30E4239F302D2227E8
:1009C0001124622B732B21E0411101C020E080E053
:1009D00090E0922F9295990F907E682B792B82E26E
:1009E0000E94AD02882311F08B5F089580E0089586
:1009F0008F929F92AF92BF92CF92DF92EF92FF922F
:100A00000F931F93CF93DF931F92CDB7DEB7209143
:100A10000F0230911002882309F498C02091280217
:100A20003091290240912A0250912B0260E078EC2B
:100A30008FE297E40E944F1121E030E030932402CE
:100A40002093230220912E02233039F426E636E645
:100A500046EE5FE30E944F1117C020912E02253011
:100A600029F426E636E646E65FE30CC020912E0226
:100A7000263051F020912E02213031F426E636E660
:100A800046EE5FE30E94501125E63FEC4BE853E44D
:100A90000E94C7136B017C0120E030E040E853E383
:100AA0000E94C7130E94A61260931D0270931E023B
:100AB00080931F029093200220E030E040E85BE446
:100AC0000E94C7139B01AC01C701B6010E944F11E0
:100AD0004B015C0120E030E040E857E30E94C7137F
:100AE0000E94A6126093190270931A0280931B024F
:100AF00090931C0220E030E040E857E40E94C713C6
:100B00009B01AC01C501B4010E944F1120E030E00F
:100B100040E85BE30E94C7130E94A612609315028F
:100B200070931602809317029093180220E030E031
:100B300040E853E4C701B6010E94C8126093110255
:100B400070931202809313029093140210910E027C
:100B5000609111027091120280911302909114021F
:100B60000E943A12E62E6091150270911602809151
:100B70001702909118020E943A12062F60911902F2
:100B800070911A0280911B0290911C020E943A12ED
:100B9000262F1E7F60911D0270911E0280911F0200
:100BA0009091200229830E943A12412F462B2981DD
:100BB00060EC83E20E94A5030F90DF91CF911F911B
:100BC0000F91FF90EF90DF90CF90BF90AF909F90EC
:100BD0008F900895EF920F9390912E02953051F1DE
:100BE000A0F4913039F1933009F050C09091310266
:100BF0008091260228E0829FA001112420E4929F88
:100C0000C0011124482B68E741C0983011F19A3097
:100C100079F19630D9F5909131028091260228E041
:100C2000829FA001112420E4929FC0011124482B2F
:100C300060E62CC0909131028091260228E0829FCC
:100C4000A001112420E4929FC0011124482B60E7E9
:100C50001DC0909131028091260228E0829FA00160
:100C6000112420E4929FC0011124482B60E40EC09F
:100C7000909131028091260228E0829FA0011124E8
:100C800020E4929FC0011124482B61E4E12C00E094
:100C900028E883E20E94A5030F91EF90089586EA69
:100CA00086B983E487B9369A08958FE083BF8AE0D6
:100CB00081BF87B7826087BF08951FBC8BE08EBD60
:100CC0008BE196E09BBD8ABD87B7806187BF0895A1
:100CD000E5E6F0E080818D7F80830895E5E6F0E031
:100CE0008081826080830895AF92BF92CF92DF921D
:100CF000EF92FF920F931F93CF93DF931F92CDB785
:100D0000DEB7882321F089830E94EA0689819091C9
:100D10002102992329F000C000C000001092210296
:100D2000882329F0979A81E08093210201C0979847
:100D300080916500816080936500A798A698A5982A
:100D4000A498A398A298A198A0980E946E0600006B
:100D5000E3B2C3B2F3B203B313B3B3B2A3B2D3B229
:100D60000E946806A79AA69AA59AA49AA39AA29AFC
:100D7000A19AA09AAF9AAE9AAD9AAC9AAB9AAA9A57
:100D8000A99AA89A809165008E7F809365008C2D2A
:100D900080749E2D9078E82EE92A9F2D9072FE2C6B
:100DA000F92A00710F291870102B8B2D8470812B5C
:100DB0009A2D9270982B8D2D8170892B0F90DF9139
:100DC000CF911F910F91FF90EF90DF90CF90BF9048
:100DD000AF900895CF93DF93CEE3D0E080E00E9400
:100DE000740687FF02C02197C9F7DF91CF9108955C
:100DF000CF93DF9300D0CDB7DEB76A8389830E949B
:100E0000EA06909121026A818981992329F000C024
:100E100000C0000010922102662329F0979A91E009
:100E20009093210203C097981092210287FF02C07D
:100E3000AF9A01C0AF9886FF02C0AE9A01C0AE98CB
:100E400085FF02C0AD9A01C0AD9884FF02C0AC9A84
:100E500001C0AC9883FF02C0AB9A01C0AB9882FF7F
:100E600002C0AA9A01C0AA9881FF02C0A99A01C033
:100E7000A99880FF02C0A89A01C0A89800000E940B
:100E80006E0600000E946806AF9AAE9AAD9AAC9AC0
:100E9000AB9AAA9AA99AA89A0F900F90DF91CF9136
:100EA000089581E00C94740660E00C94F806805874
:100EB0000C94540781E00C94540782E00C9454077E
:100EC00061E00C94F806CF93DF93EC0189918823BD
:100ED00019F00E946007FACFDF91CF910895CF9368
:100EE000DF93FC018491EF012196882321F00E9479
:100EF0006007FE01F7CFDF91CF910895E4E6F0E0BF
:100F00008081826080838F9A808181608083A79AAC
:100F1000A69AA59AA49AA39AA29AA19AA09A0E9484
:100F200068069798E5E6F0E080818E7F8083AF9A2F
:100F3000AE9AAD9AAC9AAB9AAA9AA99AA89A85EA5F
:100F40009EE00197F1F700C00000AF98AE98000056
:100F50000E946E0600000E94680680E094E00197FF
:100F6000F1F700C000000E946E0600000E946806B3
:100F700091E29A95F1F700000E946E0600000E942F
:100F800068068DE08A95F1F70000AA9800000E949B
:100F90006E0600000E9468069DE09A95F1F7000039
:100FA00088E00E9454070E945A0786E00E94540776
:100FB0008CE00C945407CF93DF93CDB7DEB7C354C6
:100FC000D1090FB6F894DEBF0FBECDBF8FEF8ABB3D
:100FD00087BB84BB93EF91BB97E092B990EE90935F
:100FE0006100809364001BBA18BA15BA8CE082BB0A
:100FF00088EF83B983E1809362001092650080E4FA
:1010000088B980EA80936A008AEA8ABF8CEF89BF38
:101010000FB6F894A89581B5886181BD11BC0FBE4B
:101020002FE986E891E0215080409040E1F700C030
:10103000000082B3806682BB17BE0E9455060E94E4
:101040005D060E940E020E947E070E945A070E94BF
:101050004F06AFE4B3EC1197F1F700C0000082B384
:101060008F7982BB6BE970E08E010F5F1F4FC80163
:101070000E943015C8010E94630780E40E94570750
:101080006CE870E0C8010E943015C8010E94630737
:1010900081E080932C028093250282E080932702D6
:1010A000109234028AE08093220280E090E1ABED5E
:1010B000B5E48093280290932902A0932A02B0936A
:1010C0002B028FEF90E090933302809332021092C4
:1010D0002E021092300210922F02109226021092CD
:1010E00031021092350260E088E10E94B704BFE748
:1010F0002AE186E0B15020408040E1F700C00000C6
:101100000E945A077894C12CD12C38E1A32E9FEF6E
:101110009EAFB12C1FAEE12CF12C412C40E6542E99
:101120004BE5642E45E4742E80913402882309F443
:1011300052C184B095B0C1010A978816990624F06F
:101140004496881599053CF5C4019250959587956C
:101150009595879580930E0280E00E94F80488237D
:10116000B9F01F928F9383E191E09F938F931F9328
:101170000F930E948C1580E40E945707C8010E94BB
:1011800063070F900F900F900F900F900F9002C079
:101190000E940C041401809100018F3F29F080917E
:1011A00000018F5F80930001809101018930D8F4A4
:1011B000809101018F5F809301018091010189304D
:1011C00040F4009B06C081E0809327028FEF80935C
:1011D000010180910101893049F4009907C082E042
:1011E0008093270203C0009B10920101019903C064
:1011F00081E08093250260912802709129028091FC
:101200002A0290912B0224962CAD3DAD4EAD5FADE0
:1012100024970E94BC11882359F10E940C0481E09C
:101220000E94F8048823B1F01F928F9383E191E02C
:101230009F938F931F930F930E948C1580E40E94BD
:101240005707C8010E9463070F900F900F900F90EF
:101250000F900F908091280290912902A0912A026C
:10126000B0912B0224968CAF9DAFAEAFBFAF249749
:10127000BE01635C7F4F83E20E947B02811120C02C
:101280008DAD87FF10C09EAD9130E9F081E090E018
:101290009093300280932F020E94C704969A9598EB
:1012A000A1E0AEAF10C0BEADBB2369F0109230021A
:1012B00010922F020E94C704959A96981EAE03C002
:1012C00082B38F7982BB8DAD8F73F81608F4F82E38
:1012D000E39480913502811103C022E02E1548F07D
:1012E00080913502882309F473C082E08E1508F0DE
:1012F0006FC093E09F1518F48CEF8F0D01C080E054
:10130000909100019A3008F461C0909135029923C0
:1013100029F08A3018F063E271E049C090913502FB
:10132000992329F08A3088F4109235024DC082301A
:1013300028F41F928F938FE291E00DC0843028F43F
:101340001F928F938CE391E006C0863038F41F9291
:101350008F9389E491E09F938F930FC0883028F496
:101360001F928F93A6E5B1E006C08A30B8F41F92B1
:101370008F93A3E6B1E0BF93AF931F930F930E94A7
:101380008C1580E40E945707C8010E9463070F90E4
:101390000F900F900F900F900F9018C08C3018F492
:1013A00060E771E004C08C3061F46CE771E0C80163
:1013B0000E94421580E40E945707C8010E946307FB
:1013C00005C081E0809335020E94C704E12CF12C16
:1013D000109234026EC080912502882309F469C0FE
:1013E00080912E028330A9F018F4813031F045C08D
:1013F0008530D9F0863029F140C083E080932E02F9
:101400000E94EA0581114AC00E94570768E871E00E
:101410003FC085E080932E020E94EA0581113EC004
:101420000E9457076DE871E033C086E080932E027A
:101430000E94EA05811132C00E94570762E971E0FB
:1014400027C080912202883C60F488E080932E02BD
:101450000E94EA05811122C00E94570767E971E0E6
:1014600017C08AE080932E020E94EA05811116C0FF
:101470000E9457076CE971E00BC081E080932E0257
:101480000E94EA0581110AC00E94570761EA71E0D3
:10149000C8010E944215C8010E94630783E294EFCD
:1014A0000197F1F700C0000081E00E94F80410925B
:1014B000250280912702882309F412C18091270216
:1014C000823009F4CDC06091280270912902809188
:1014D0002A0290912B0220E030EC4AE555E40E946C
:1014E000BC1187FF09C040922802509229026092E5
:1014F0002A0270922B02B4C06091280270912902D6
:1015000080912A0290912B0220E030EC4AED55E4C4
:101510000E94BC1187FF05C080E090E1ABEDB5E40F
:1015200097C0609128027091290280912A029091BF
:101530002B0220E030ED4DE156E40E94BC1187FF04
:1015400005C080E098EFADE1B6E482C0609128026A
:101550007091290280912A0290912B0220E030ECB8
:101560004AE556E40E94BC1187FF05C080E098EE72
:10157000AAE5B6E46DC060912802709129028091BD
:101580002A0290912B0220E038E24DE856E40E94B6
:10159000BC1187FF05C080E09CE3ADE8B6E458C00D
:1015A000609128027091290280912A0290912B0269
:1015B00020E030E144EA56E40E94BC1187FF05C0F8
:1015C00080E094E2A4EAB6E443C0609128027091FE
:1015D000290280912A0290912B0220E034E742EC0C
:1015E00056E40E94BC1187FF05C080E098E8A2EC99
:1015F000B6E42EC0609128027091290280912A02DF
:1016000090912B0220E030EC4AED56E40E94BC1190
:1016100087FF05C080E094EDAAEDB6E419C06091A3
:1016200028027091290280912A0290912B0220E0D9
:1016300038EA4EED56E40E94BC1187FF05C080E0F9
:1016400090E7AFEDB6E404C080E090E4A2EEB4E42D
:101650008093280290932902A0932A02B0932B0230
:101660000E940C0481E00E94F8048823B1F01F92CC
:101670008F9386EA91E09F938F931F930F930E941D
:101680008C1580E40E945707C8010E9463070F90E1
:101690000F900F900F900F900F900E94EA058823F3
:1016A000B1F01F928F938BEB91E09F938F931F93D9
:1016B0000F930E948C1580E40E945707C8010E9476
:1016C00063070F900F900F900F900F900F90AFE463
:1016D000B3EC1197F1F700C000001092270224CD5F
:1016E00080912C02882309F4AEC180912C02BFADF9
:1016F0008B1749F0109233021092320280912C0223
:10170000C12CD12C9CC190912C02913009F0C5C004
:101710008091320290913302109233021092320281
:101720004E9748F42FEFC21AD20A85EFC81681E00F
:10173000D80628F427C0CC24C394D12C56C080915D
:101740002E02883069F460912802709129028091FC
:101750002A0290912B0220E030E040EA51E491C04F
:1017600080912E028A3009F046C060912802709163
:10177000290280912A0290912B0220E030E048E477
:1017800052E47FC097E9C916D10478F180912E0206
:10179000883069F4609128027091290280912A02B0
:1017A00090912B0220E030E040EA50E46AC0809142
:1017B0002E028A3069F4609128027091290280918A
:1017C0002A0290912B0220E030E048EC51E459C00D
:1017D000609128027091290280912A0290912B0237
:1017E00020E030E040E05FE34CC080912E02883082
:1017F000E1F40B9B0DC06091280270912902809149
:101800002A0290912B0220E030E040E85FE339C0EB
:10181000609128027091290280912A0290912B02F6
:1018200020E030E040E251E42CC080912E028A306A
:1018300069F4609128027091290280912A029091A6
:101840002B0220E030E040E250E41BC00B9B0DC0B7
:10185000609128027091290280912A0290912B02B6
:101860002DEC3CEC4CE45DE30CC0609128027091DF
:10187000290280912A0290912B0220E030E040E082
:1018800050E40E94501160932802709329028093C3
:101890002A0290932B0281E0D2C090912C029230C8
:1018A00009F0CDC080913202909133024E9790F4AE
:1018B00080912C02AFADA8130DC01092330210928C
:1018C0003202BFEFCB1ADB0A25EFC21621E0D206A7
:1018D00048F42BC01092330210923202CC24C394ED
:1018E000D12C56C080912E02883069F46091280274
:1018F0007091290280912A0290912B0220E030E021
:1019000040EA51E491C080912E028A3009F046C02D
:10191000609128027091290280912A0290912B02F5
:1019200020E030E048E452E47FC087E9C816D104E3
:1019300078F180912E02883069F4609128027091CC
:10194000290280912A0290912B0220E030E040EAA7
:1019500050E46AC080912E028A3069F460912802B6
:101960007091290280912A0290912B0220E030E0B0
:1019700048EC51E459C0609128027091290280918D
:101980002A0290912B0220E030E040E05FE34CC05F
:1019900080912E028830E1F40B9B0DC060912802EB
:1019A0007091290280912A0290912B0220E030E070
:1019B00040E85FE339C0609128027091290280916C
:1019C0002A0290912B0220E030E040E251E42CC04A
:1019D00080912E028A3069F4609128027091290268
:1019E00080912A0290912B0220E030E040E250E406
:1019F0001BC00B9B0DC06091280270912902809141
:101A00002A0290912B022DEC3CEC4CE45DE30CC0DF
:101A1000609128027091290280912A0290912B02F4
:101A200020E030E040E050E40E944F116093280233
:101A30007093290280932A0290932B0282E01092E5
:101A40002C028FAF71CB80912D02882309F46CCBCF
:101A500080910001823008F47AC0049B35C08091E7
:101A60002D02813029F49EE19A1540F0A39406C01E
:101A700080912D028230E1F4A110AA948FE190E0D0
:101A80008A1991099F938F9380ED91E09F938F9393
:101A90001F930F930E948C1580E40E945707C80182
:101AA0000E9463070F900F900F900F900F900F9070
:101AB0006B2D8A2D0E94B704882309F446C01F921B
:101AC0008F938BED91E02FC080912D02823029F40D
:101AD000AEE1AB1540F0B39406C080912D02813089
:101AE000C1F4B110BA941F92BF928FEE91E09F9310
:101AF0008F931F930F930E948C1580E40E945707C9
:101B0000C8010E9463070F900F900F900F900F90E5
:101B10000F906B2D8A2D0E94B7048823B1F01F927D
:101B20008F9389EF91E09F938F931F930F930E9460
:101B30008C1580E40E945707C8010E9463070F902C
:101B40000F900F900F900F900F9010920001109235
:101B50002D02EACA2F923F924F925F926F927F922C
:101B60008F929F92AF92BF92CF92DF92EF92FF92AD
:101B70000F931F93CF93DF93CDB7DEB763970FB665
:101B8000F894DEBF0FBECDBF6C014B012A01FC01F2
:101B900017821682838181FF43C3AE014F5F5F4F7F
:101BA0003A01F6019381F40193FD859193FF8191B0
:101BB0004F01882309F430C3853239F493FD8591B0
:101BC00093FF81914F01853239F4B60190E00E9474
:101BD000541552012501E5CF10E0F12C20E0203210
:101BE000A0F48B3269F030F4803259F0833269F41A
:101BF00020612CC08D3239F0803339F4216026C049
:101C00002260246023C0286021C027FD27C030ED5A
:101C1000380F3A3078F426FF06C0FAE01F9F300DE7
:101C20001124132F13C04AE0F49E300D1124F32E1B
:101C300020620CC08E3221F426FDEEC2206406C064
:101C40008C3611F4206802C0883641F4F40193FD0B
:101C5000859193FF81914F018111C1CF9BEB980F2B
:101C6000933018F42061805E06C09BE9980F933092
:101C700008F071C12F7E26FF16E02F73322E8536B5
:101C800019F42064322E08C0863621F4F22FF06851
:101C90003F2E02C01111115037FE07C01C3350F403
:101CA000EE24E394E10E27E00BC0183038F027E073
:101CB00017E005C027E04CE3E42E02C0212FE12C01
:101CC000520144E0A40EB11CF20160817181828155
:101CD00093810E2DA3010E9458142C01098100FF4D
:101CE00002C003FF07C031FC08C032FE09C030E269
:101CF000232E07C02DE2222E04C09BE2292E01C014
:101D0000212C802F8C7019F0211068C2A8C237FED8
:101D10000FC0E40C04FF04C08A81813309F4EA9403
:101D20001E1474F5F8E0FE1578F588E0E82E2CC056
:101D300036FC2AC0812F90E0841595059CF02CEF8D
:101D400042162FEF520674F0432D4068342E0AC01D
:101D5000E2E0F0E0EC0FFD1FE10FF11D8081803328
:101D600019F411501111F4CF37FE0EC0EE24E39494
:101D7000E10E812F90E0481659062CF4141904C086
:101D8000EE24E39401C010E037FE06C014141504DD
:101D900034F4C201019605C085E090E002C081E004
:101DA00090E021100196112331F0212F30E02F5FB8
:101DB0003F4F820F931F2F2D30E08217930714F4AB
:101DC000F81A01C0F12C832D897049F4FF2039F0F5
:101DD000B60180E290E00E945415FA94F7CF2220D9
:101DE00029F0B601822D90E00E94541533FC09C001
:101DF000FF2039F0B60180E390E00E945415FA9478
:101E0000F7CF37FE5AC0942D852D57FE02C090E0C3
:101E100080E0292E382E20E030E0A2014E19510931
:101E20005D874C87A201421953095F874E87612F56
:101E300070E044275527461B570B598B488B5FEFA3
:101E40002516350649F4B6018EE290E02A8B3B8BCD
:101E50000E9454153B892A89421453046CF04C8526
:101E60005D854215530544F4EE85FF85E20FF31FAF
:101E7000E60DF71D818101C080E351E0251A31088C
:101E80002F5F3F4F48895989241635064CF0B6011B
:101E900090E02A8B3B8B0E9454152A893B89CFCF37
:101EA0002414350439F49A81963318F4953311F4D7
:101EB00004FF81E3B60190E04BC08A81813309F0D1
:101EC0000F7EB60190E00E945415111105C034FC3C
:101ED00018C085E690E017C0B6018EE290E00E943F
:101EE000541582E0EE24E394E80EF301E80FF11DAF
:101EF0008081B60190E00E94541511508E2D91F70B
:101F0000E6CF85E490E0B6010E94541557FC05C069
:101F10004114510439F404FF05C05194419451080F
:101F20008DE201C08BE2B60190E00E94541580E37F
:101F30009AE0491651042CF08F5F5AE0451A510877
:101F4000F7CFB60190E00E945415B601C201C096C9
:101F50000E94541557C1833631F0833779F08335A9
:101F600009F058C021C05201E2E0AE0EB11CF201EE
:101F70008081898301E010E0230114C05201F2E066
:101F8000AF0EB11CF2014080518026FF03C0612FCB
:101F900070E002C06FEF7FEFC2012A8B0E944915EB
:101FA0008C012A892F7715C05201F2E0AF0EB11CC7
:101FB000F2014080518026FF03C0612F70E002C013
:101FC0006FEF7FEFC2012A8B0E9437158C012A899F
:101FD0002068322E23FD1AC08F2D90E008171907B4
:101FE000A8F4B60180E290E00E945415FA94F4CF70
:101FF000F20137FC859137FE81912F01B60190E007
:102000000E945415F110FA9401501109011511059F
:1020100079F7F8C0843611F0893659F5520127FF57
:1020200009C0F4E0AF0EB11CF201608171818281C0
:1020300093810AC0F2E0AF0EB11CF20160817181A0
:10204000072E000C880B990B2F76322E97FF09C0B4
:1020500090958095709561957F4F8F4F9F4F206829
:10206000322E2AE030E0A3010E94BC15E82EE618CB
:102070003FC0022F853721F40F7E2AE030E01DC0DB
:10208000097F8F3691F018F4883559F0C5C0803734
:1020900019F0883711F0C0C0006104FF09C0046066
:1020A00007C024FF08C0066006C028E030E005C075
:1020B00020E130E002C020E132E0520107FF09C018
:1020C000F4E0AF0EB11CF2016081718182819381D5
:1020D00008C0F2E0AF0EB11CF2016081718180E0B6
:1020E00090E0A3010E94BC15E82EE6180F77302E71
:1020F00036FE0BC0332D3E7FE11650F434FE0AC08D
:1021000032FC08C0332D3E7E05C00E2D332D03C09A
:102110000E2D01C0012F34FF0CC0FE01EE0DF11D8C
:102120008081803311F4397E08C032FF05C00E5F14
:1021300004C0832F867809F00F5F33FD13C030FF92
:1021400006C01E2D0F1518F41F0D101B0F2D0F1597
:1021500068F4B60180E290E03B8B0E9454150F5F5B
:102160003B89F5CF0F1510F4F01A01C0F12C34FFA4
:1021700012C0B60180E390E03B8B0E9454153B896E
:1021800032FF17C031FD03C088E790E002C088E548
:1021900090E0B6010CC0832F867859F031FF02C061
:1021A0008BE201C080E237FD8DE2B60190E00E9433
:1021B0005415E11638F4B60180E390E00E945415FE
:1021C0001150F7CFEA94F301EE0DF11D8081B601B5
:1021D00090E00E945415E110F5CF14C0F4E0FF1513
:1021E00058F584E0F81A33FE1EC0211026C003FF04
:1021F0002AC006EA10E0F32DF0713F2EF801849119
:10220000811124C0FF2009F4E5CCB60180E290E002
:102210000E945415FA94F6CFF6018681978126C064
:102220008FEF9FEF23C0B60180E290E00E9454152B
:10223000FA94F110F8CFD9CFF12CB601822D90E0AD
:102240000E945415D4CF0AEA10E0D5CF3110805245
:10225000B60190E00E9454150F5F1F4FCFCF23E0CF
:102260002F1510F483E0BECFF12CC1CF63960FB6CB
:10227000F894DEBF0FBECDBFDF91CF911F910F91BC
:10228000FF90EF90DF90CF90BF90AF909F908F9096
:102290007F906F905F904F903F902F90089550588F
:1022A000BB27AA270E9467110C9475130E9467131D
:1022B00038F00E946E1320F039F49F3F19F426F491
:1022C0000C9464130EF4E095E7FB0C943513E92F9E
:1022D0000E94861358F3BA1762077307840795079D
:1022E00020F079F4A6F50C94C0130EF4E0950B2EB3
:1022F000BA2FA02D0B01B90190010C01CA01A00158
:102300001124FF27591B99F0593F50F4503E68F1B2
:102310001A16F040A22F232F342F4427585FF3CFF3
:10232000469537952795A795F0405395C9F77EF4C4
:102330001F16BA0B620B730B840BBAF09150A1F00D
:10234000FF0FBB1F661F771F881FC2F70EC0BA0F93
:10235000621F731F841F48F4879577956795B7951B
:10236000F7959E3F08F0B0CF9395880F08F0992716
:10237000EE0F9795879508950E94111308F481E058
:1023800008950E94D5110C9475130E946E1358F095
:102390000E94671340F029F45F3F29F00C94351335
:1023A00051110C94C1130C9464130E94861368F3AA
:1023B0009923B1F3552391F3951B550BBB27AA27FE
:1023C00062177307840738F09F5F5F4F220F331F38
:1023D000441FAA1FA9F335D00E2E3AF0E0E832D000
:1023E00091505040E695001CCAF72BD0FE2F29D003
:1023F000660F771F881FBB1F261737074807AB07D5
:10240000B0E809F0BB0B802DBF01FF2793585F4F49
:102410003AF09E3F510578F00C9435130C94C1139B
:102420005F3FE4F3983ED4F3869577956795B7952B
:10243000F7959F5FC9F7880F911D9695879597F936
:102440000895E1E0660F771F881FBB1F62177307AF
:102450008407BA0720F0621B730B840BBA0BEE1FC4
:1024600088F7E09508950E943A126894B1110C948F
:10247000C11308950E948E1388F09F5798F0B92FCA
:102480009927B751B0F0E1F0660F771F881F991FA9
:102490001AF0BA95C9F714C0B13091F00E94C01378
:1024A000B1E008950C94C013672F782F8827B85F88
:1024B00039F0B93FCCF3869577956795B395D9F701
:1024C0003EF490958095709561957F4F8F4F9F4F0B
:1024D0000895E89409C097FB3EF490958095709517
:1024E00061957F4F8F4F9F4F9923A9F0F92F96E960
:1024F000BB279395F695879577956795B795F111D5
:10250000F8CFFAF4BB0F11F460FF1BC06F5F7F4F71
:102510008F4F9F4F16C0882311F096E911C0772383
:1025200021F09EE8872F762F05C0662371F096E88C
:10253000862F70E060E02AF09A95660F771F881F5B
:10254000DAF7880F9695879597F908950E94A81352
:1025500090F09F3748F4911116F00C94C11360E08D
:1025600070E080E89FEB089526F41B16611D711D35
:10257000811D0C943B130C9456130E94671320F09A
:1025800019F00E946E1350F40C9464130C94C11350
:10259000E92F0E94861388F35523B1F3E7FB6217F6
:1025A000730784079507A8F189F3E92FFF2788238C
:1025B0002AF03197660F771F881FDAF7952F552776
:1025C000442332F091505040220F331F441FD2F762
:1025D000BB27E91BF50B621B730B840BB109B1F22E
:1025E00022F4620F731F841FB11D31972AF0660F0A
:1025F000771F881FBB1FEFCF9150504062F041F012
:10260000882332F0660F771F881F91505040C1F722
:1026100093950C9456138695779567959F5FD9F798
:10262000F7CF990F0008550FAA0BE0E8FEEF16163A
:102630001706E807F907C0F012161306E407F507B6
:1026400098F0621B730B840B950B39F40A2661F02A
:10265000232B242B252B21F408950A2609F4A140CD
:10266000A6958FEF811D811D089597F99F6780E8DA
:1026700070E060E00895882371F4772321F098508A
:10268000872B762F07C0662311F499270DC0905130
:10269000862B70E060E02AF09A95660F771F881FFE
:1026A000DAF7880F9695879597F908959F3F31F04F
:1026B000915020F4879577956795B795880F911D70
:1026C0009695879597F908959FEF80EC08950024DB
:1026D0000A941616170618060906089500240A9487
:1026E00012161306140605060895092E0394000C0D
:1026F00011F4882352F0BB0F40F4BF2B11F460FF9C
:1027000004C06F5F7F4F8F4F9F4F089557FD9058C4
:10271000440F551F59F05F3F71F04795880F97FBA5
:10272000991F61F09F3F79F087950895121613065F
:102730001406551FF2CF4695F1DF08C0161617068E
:102740001806991FF1CF86957105610508940895C3
:102750000E948E13A0F0BEE7B91788F4BB279F38FC
:1027600060F41616B11D672F782F8827985FF7CF72
:10277000869577956795B11D93959639C8F3089519
:10278000E894BB2766277727CB0197F908950E9425
:10279000DA130C9475130E94671338F00E946E13BD
:1027A00020F0952311F00C9435130C94641311242C
:1027B0000C94C1130E94861370F3959FC1F3950F7B
:1027C00050E0551F629FF001729FBB27F00DB11DB5
:1027D000639FAA27F00DB11DAA1F649F6627B00D45
:1027E000A11D661F829F2227B00DA11D621F739F2E
:1027F000B00DA11D621F839FA00D611D221F749F3C
:102800003327A00D611D231F849F600D211D822F82
:10281000762F6A2F11249F5750409AF0F1F08823A9
:102820004AF0EE0FFF1FBB1F661F771F881F9150D6
:102830005040A9F79E3F510580F00C9435130C943D
:10284000C1135F3FE4F3983ED4F38695779567957F
:10285000B795F795E7959F5FC1F7FE2B880F911D00
:102860009695879597F908950E948E13E8F09E3704
:10287000E8F09639B8F49E3848F4672F782F882707
:10288000985FF9CF86957795679593959539D0F3AD
:10289000B62FB1706B0F711D811D20F48795779550
:1028A000679593950C943B130C9456130C94C11399
:1028B000283008F027E03327DA01990F311D87FD12
:1028C000916000966105710539F432602E5F3D9389
:1028D00030E32A95E1F708959F3F30F08038710585
:1028E000610509F03C5F3C5F3D93913008F08068E2
:1028F000911DDF93CF931F930F93FF92EF92192FA8
:10290000987F9695E92F96959695E90FFF27E85FB2
:10291000FE4F99273327EE24FF24A701E7010590F6
:102920000894079428F4360FE71EF81E491F511D1E
:10293000660F771F881F991F0694A1F705900794CB
:1029400028F4E70EF81E491F561FC11D770F881F78
:10295000991F661F0694A1F70590079428F4F80EB6
:10296000491F561FC71FD11D880F991F661F771F4C
:102970000694A1F70590079420F4490F561FC71F2E
:10298000D81F990F661F771F881F0694A9F7849197
:102990001095177041F0D695C79557954795F794C0
:1029A000E7941A95C1F7EEEAF0E068941590159156
:1029B00035916591959105907FE27395E118F10A43
:1029C000430B560BC90BD009C0F7E10CF11E431F96
:1029D000561FC91FD01D7EF4703311F48A95E6CFBF
:1029E000E894015030F0080F0AF40027021708F4A9
:1029F000202F2395022F7A3328F079E37D932A95AF
:102A0000E9F710C07D932A9589F606949795679506
:102A1000379517951794E118F10A430B560BC90B1C
:102A2000D00998F023957E9173957A3308F070E37E
:102A30007C932013B8F77E9170617D9330F083957D
:102A400071E37D9370E32A95E1F71124EF90FF90F5
:102A50000F911F91CF91DF91992787FD9095089550
:102A6000FB01DC0105900D920020E1F70895FC01C7
:102A70000590615070400110D8F7809590958E0FA9
:102A80009F1F0895FB01DC0101900D920020E1F7EA
:102A90000895FC016150704001900110D8F78095B5
:102AA00090958E0F9F1F08950F931F93CF93DF93E1
:102AB000FB01238121FD03C08FEF9FEF28C022FF80
:102AC00016C046815781248135814217530744F44B
:102AD000A081B1819D012F5F3F4F318320838C9373
:102AE000268137812F5F3F4F3783268310C0EB014C
:102AF000092F182F0084F185E02D0995892BE1F627
:102B00008E819F8101969F838E83812F902FDF91ED
:102B1000CF911F910F9108950F931F93CF93DF9340
:102B2000CDB7DEB72E970FB6F894DEBF0FBECDBF80
:102B30000D891E8986E08C831A8309838FEF9FE7B6
:102B40009E838D83AE01475E5F4F6F89788DCE0186
:102B500001960E94AA0D2F813885F801E20FF31F1C
:102B600010822E960FB6F894DEBF0FBECDBFDF9158
:102B7000CF911F910F910895FA01AA27283051F1A2
:102B8000203181F1E8946F936E7F6E5F7F4F8F4F9E
:102B90009F4FAF4FB1E03ED0B4E03CD0670F781FFD
:102BA000891F9A1FA11D680F791F8A1F911DA11DE2
:102BB0006A0F711D811D911DA11D20D009F468941B
:102BC0003F912AE0269F11243019305D3193DEF6C3
:102BD000CF010895462F4770405D4193B3E00FD079
:102BE000C9F7F6CF462F4F70405D4A3318F0495D64
:102BF00031FD4052419302D0A9F7EACFB4E0A69547
:102C00009795879577956795BA95C9F70097610568
:102C1000710508959B01AC010A2E069457954795BE
:102C200037952795BA95C9F7620F731F841F951FB3
:082C3000A01D0895F894FFCFE8
:102C3800FFFF25642C2530362E32662020202020E8
:102C4800002B00457272202578202020202020208B
:102C5800202000532D2D2D392B2B2B2020200053E5
:102C6800256420202020202020202000532D2564AA
:102C7800202020202020202000532D2D25642020D6
:102C8800202020202000532D2D2D256420202020B9
:102C9800202000532D2D2D2D2564202020202000BC
:102CA800532D2D2D2D392B2020202000532D2D2D57
:102CB8002D392B2B2020200055534220004357202C
:102CC800200043574E2000414D202000464D202033
:102CD800004C5342200045727220667265712025AF
:102CE8007820202020202020202000457272207388
:102CF80065747420257820202020202020202000A2
:102D0800566F6C20256420202020004572722056C2
:102D18006F6C2025782020202020202020200053A0
:102D280071202564202020200045727220537120D4
:0C2D3800257820202020202020202000D2
:00000001FF
